{
  "_format": "hh-sol-artifact-1",
  "contractName": "DAO",
  "sourceName": "contracts/DAO.sol",
  "abi": [
    {
      "inputs": [
        {
          "internalType": "address",
          "name": "_voteToken",
          "type": "address"
        },
        {
          "internalType": "string[]",
          "name": "_ipfsFolderCIDs",
          "type": "string[]"
        },
        {
          "internalType": "uint256[]",
          "name": "_collectionsSize",
          "type": "uint256[]"
        },
        {
          "internalType": "uint256",
          "name": "_quorum",
          "type": "uint256"
        }
      ],
      "stateMutability": "nonpayable",
      "type": "constructor"
    },
    {
      "inputs": [],
      "name": "DAO__Ipfs_CIDs_CollectionSize_Mismatch",
      "type": "error"
    },
    {
      "inputs": [],
      "name": "OnlyKeeperRegistry",
      "type": "error"
    },
    {
      "anonymous": false,
      "inputs": [
        {
          "indexed": true,
          "internalType": "address",
          "name": "owner",
          "type": "address"
        },
        {
          "indexed": true,
          "internalType": "address",
          "name": "approved",
          "type": "address"
        },
        {
          "indexed": true,
          "internalType": "uint256",
          "name": "tokenId",
          "type": "uint256"
        }
      ],
      "name": "Approval",
      "type": "event"
    },
    {
      "anonymous": false,
      "inputs": [
        {
          "indexed": true,
          "internalType": "address",
          "name": "owner",
          "type": "address"
        },
        {
          "indexed": true,
          "internalType": "address",
          "name": "operator",
          "type": "address"
        },
        {
          "indexed": false,
          "internalType": "bool",
          "name": "approved",
          "type": "bool"
        }
      ],
      "name": "ApprovalForAll",
      "type": "event"
    },
    {
      "anonymous": false,
      "inputs": [
        {
          "indexed": true,
          "internalType": "bytes32",
          "name": "role",
          "type": "bytes32"
        },
        {
          "indexed": true,
          "internalType": "bytes32",
          "name": "previousAdminRole",
          "type": "bytes32"
        },
        {
          "indexed": true,
          "internalType": "bytes32",
          "name": "newAdminRole",
          "type": "bytes32"
        }
      ],
      "name": "RoleAdminChanged",
      "type": "event"
    },
    {
      "anonymous": false,
      "inputs": [
        {
          "indexed": true,
          "internalType": "bytes32",
          "name": "role",
          "type": "bytes32"
        },
        {
          "indexed": true,
          "internalType": "address",
          "name": "account",
          "type": "address"
        },
        {
          "indexed": true,
          "internalType": "address",
          "name": "sender",
          "type": "address"
        }
      ],
      "name": "RoleGranted",
      "type": "event"
    },
    {
      "anonymous": false,
      "inputs": [
        {
          "indexed": true,
          "internalType": "bytes32",
          "name": "role",
          "type": "bytes32"
        },
        {
          "indexed": true,
          "internalType": "address",
          "name": "account",
          "type": "address"
        },
        {
          "indexed": true,
          "internalType": "address",
          "name": "sender",
          "type": "address"
        }
      ],
      "name": "RoleRevoked",
      "type": "event"
    },
    {
      "anonymous": false,
      "inputs": [
        {
          "indexed": true,
          "internalType": "address",
          "name": "from",
          "type": "address"
        },
        {
          "indexed": true,
          "internalType": "address",
          "name": "to",
          "type": "address"
        },
        {
          "indexed": true,
          "internalType": "uint256",
          "name": "tokenId",
          "type": "uint256"
        }
      ],
      "name": "Transfer",
      "type": "event"
    },
    {
      "anonymous": false,
      "inputs": [
        {
          "indexed": false,
          "internalType": "uint256",
          "name": "winningProposal",
          "type": "uint256"
        },
        {
          "indexed": false,
          "internalType": "uint256",
          "name": "winningProposalVoteCount",
          "type": "uint256"
        },
        {
          "indexed": false,
          "internalType": "uint256",
          "name": "totalVotes",
          "type": "uint256"
        },
        {
          "indexed": false,
          "internalType": "uint256",
          "name": "winningProposalCollectionSize",
          "type": "uint256"
        },
        {
          "indexed": false,
          "internalType": "string",
          "name": "winningProposalIPFSFolderCID",
          "type": "string"
        }
      ],
      "name": "UpkeepPerformed",
      "type": "event"
    },
    {
      "inputs": [],
      "name": "DEFAULT_ADMIN_ROLE",
      "outputs": [
        {
          "internalType": "bytes32",
          "name": "",
          "type": "bytes32"
        }
      ],
      "stateMutability": "view",
      "type": "function"
    },
    {
      "inputs": [],
      "name": "MINTER_ROLE",
      "outputs": [
        {
          "internalType": "bytes32",
          "name": "",
          "type": "bytes32"
        }
      ],
      "stateMutability": "view",
      "type": "function"
    },
    {
      "inputs": [
        {
          "internalType": "address",
          "name": "to",
          "type": "address"
        },
        {
          "internalType": "uint256",
          "name": "tokenId",
          "type": "uint256"
        }
      ],
      "name": "approve",
      "outputs": [],
      "stateMutability": "nonpayable",
      "type": "function"
    },
    {
      "inputs": [
        {
          "internalType": "address",
          "name": "owner",
          "type": "address"
        }
      ],
      "name": "balanceOf",
      "outputs": [
        {
          "internalType": "uint256",
          "name": "",
          "type": "uint256"
        }
      ],
      "stateMutability": "view",
      "type": "function"
    },
    {
      "inputs": [
        {
          "internalType": "uint256",
          "name": "tokenId",
          "type": "uint256"
        }
      ],
      "name": "burn",
      "outputs": [],
      "stateMutability": "nonpayable",
      "type": "function"
    },
    {
      "inputs": [
        {
          "internalType": "bytes",
          "name": "",
          "type": "bytes"
        }
      ],
      "name": "checkUpkeep",
      "outputs": [
        {
          "internalType": "bool",
          "name": "upkeepNeeded",
          "type": "bool"
        },
        {
          "internalType": "bytes",
          "name": "",
          "type": "bytes"
        }
      ],
      "stateMutability": "view",
      "type": "function"
    },
    {
      "inputs": [
        {
          "internalType": "uint256",
          "name": "",
          "type": "uint256"
        }
      ],
      "name": "collectionTokenUris",
      "outputs": [
        {
          "internalType": "string",
          "name": "",
          "type": "string"
        }
      ],
      "stateMutability": "view",
      "type": "function"
    },
    {
      "inputs": [],
      "name": "ethereumBase",
      "outputs": [
        {
          "internalType": "uint256",
          "name": "",
          "type": "uint256"
        }
      ],
      "stateMutability": "view",
      "type": "function"
    },
    {
      "inputs": [],
      "name": "getAccountCollections",
      "outputs": [
        {
          "internalType": "string[]",
          "name": "",
          "type": "string[]"
        }
      ],
      "stateMutability": "view",
      "type": "function"
    },
    {
      "inputs": [],
      "name": "getAllProposals",
      "outputs": [
        {
          "components": [
            {
              "internalType": "uint256",
              "name": "index",
              "type": "uint256"
            },
            {
              "internalType": "uint256",
              "name": "voteCount",
              "type": "uint256"
            },
            {
              "internalType": "uint256",
              "name": "collectionSize",
              "type": "uint256"
            },
            {
              "internalType": "bool",
              "name": "active",
              "type": "bool"
            },
            {
              "internalType": "string",
              "name": "ipfsFolderCID",
              "type": "string"
            }
          ],
          "internalType": "struct DAO.Proposal[]",
          "name": "",
          "type": "tuple[]"
        }
      ],
      "stateMutability": "view",
      "type": "function"
    },
    {
      "inputs": [
        {
          "internalType": "uint256",
          "name": "tokenId",
          "type": "uint256"
        }
      ],
      "name": "getApproved",
      "outputs": [
        {
          "internalType": "address",
          "name": "",
          "type": "address"
        }
      ],
      "stateMutability": "view",
      "type": "function"
    },
    {
      "inputs": [],
      "name": "getQuorum",
      "outputs": [
        {
          "internalType": "uint256",
          "name": "",
          "type": "uint256"
        }
      ],
      "stateMutability": "view",
      "type": "function"
    },
    {
      "inputs": [
        {
          "internalType": "bytes32",
          "name": "role",
          "type": "bytes32"
        }
      ],
      "name": "getRoleAdmin",
      "outputs": [
        {
          "internalType": "bytes32",
          "name": "",
          "type": "bytes32"
        }
      ],
      "stateMutability": "view",
      "type": "function"
    },
    {
      "inputs": [],
      "name": "getTotalVotes",
      "outputs": [
        {
          "internalType": "uint256",
          "name": "",
          "type": "uint256"
        }
      ],
      "stateMutability": "view",
      "type": "function"
    },
    {
      "inputs": [
        {
          "internalType": "uint256",
          "name": "index",
          "type": "uint256"
        }
      ],
      "name": "getVotersForProposal",
      "outputs": [
        {
          "internalType": "address[]",
          "name": "",
          "type": "address[]"
        }
      ],
      "stateMutability": "view",
      "type": "function"
    },
    {
      "inputs": [],
      "name": "getWinningProposal",
      "outputs": [
        {
          "internalType": "uint256",
          "name": "winningProposal_",
          "type": "uint256"
        }
      ],
      "stateMutability": "view",
      "type": "function"
    },
    {
      "inputs": [],
      "name": "governanceTokenContract",
      "outputs": [
        {
          "internalType": "contract GovernanceToken",
          "name": "",
          "type": "address"
        }
      ],
      "stateMutability": "view",
      "type": "function"
    },
    {
      "inputs": [
        {
          "internalType": "bytes32",
          "name": "role",
          "type": "bytes32"
        },
        {
          "internalType": "address",
          "name": "account",
          "type": "address"
        }
      ],
      "name": "grantRole",
      "outputs": [],
      "stateMutability": "nonpayable",
      "type": "function"
    },
    {
      "inputs": [
        {
          "internalType": "bytes32",
          "name": "role",
          "type": "bytes32"
        },
        {
          "internalType": "address",
          "name": "account",
          "type": "address"
        }
      ],
      "name": "hasRole",
      "outputs": [
        {
          "internalType": "bool",
          "name": "",
          "type": "bool"
        }
      ],
      "stateMutability": "view",
      "type": "function"
    },
    {
      "inputs": [],
      "name": "interval",
      "outputs": [
        {
          "internalType": "uint256",
          "name": "",
          "type": "uint256"
        }
      ],
      "stateMutability": "view",
      "type": "function"
    },
    {
      "inputs": [
        {
          "internalType": "address",
          "name": "owner",
          "type": "address"
        },
        {
          "internalType": "address",
          "name": "operator",
          "type": "address"
        }
      ],
      "name": "isApprovedForAll",
      "outputs": [
        {
          "internalType": "bool",
          "name": "",
          "type": "bool"
        }
      ],
      "stateMutability": "view",
      "type": "function"
    },
    {
      "inputs": [],
      "name": "lastTimeStamp",
      "outputs": [
        {
          "internalType": "uint256",
          "name": "",
          "type": "uint256"
        }
      ],
      "stateMutability": "view",
      "type": "function"
    },
    {
      "inputs": [],
      "name": "name",
      "outputs": [
        {
          "internalType": "string",
          "name": "",
          "type": "string"
        }
      ],
      "stateMutability": "view",
      "type": "function"
    },
    {
      "inputs": [
        {
          "internalType": "uint256",
          "name": "tokenId",
          "type": "uint256"
        }
      ],
      "name": "ownerOf",
      "outputs": [
        {
          "internalType": "address",
          "name": "",
          "type": "address"
        }
      ],
      "stateMutability": "view",
      "type": "function"
    },
    {
      "inputs": [
        {
          "internalType": "bytes",
          "name": "",
          "type": "bytes"
        }
      ],
      "name": "performUpkeep",
      "outputs": [],
      "stateMutability": "nonpayable",
      "type": "function"
    },
    {
      "inputs": [
        {
          "internalType": "uint256",
          "name": "",
          "type": "uint256"
        },
        {
          "internalType": "uint256",
          "name": "",
          "type": "uint256"
        }
      ],
      "name": "proposalVoters",
      "outputs": [
        {
          "internalType": "address",
          "name": "",
          "type": "address"
        }
      ],
      "stateMutability": "view",
      "type": "function"
    },
    {
      "inputs": [
        {
          "internalType": "uint256",
          "name": "",
          "type": "uint256"
        }
      ],
      "name": "proposals",
      "outputs": [
        {
          "internalType": "uint256",
          "name": "index",
          "type": "uint256"
        },
        {
          "internalType": "uint256",
          "name": "voteCount",
          "type": "uint256"
        },
        {
          "internalType": "uint256",
          "name": "collectionSize",
          "type": "uint256"
        },
        {
          "internalType": "bool",
          "name": "active",
          "type": "bool"
        },
        {
          "internalType": "string",
          "name": "ipfsFolderCID",
          "type": "string"
        }
      ],
      "stateMutability": "view",
      "type": "function"
    },
    {
      "inputs": [],
      "name": "referenceBlock",
      "outputs": [
        {
          "internalType": "uint256",
          "name": "",
          "type": "uint256"
        }
      ],
      "stateMutability": "view",
      "type": "function"
    },
    {
      "inputs": [
        {
          "internalType": "bytes32",
          "name": "role",
          "type": "bytes32"
        },
        {
          "internalType": "address",
          "name": "account",
          "type": "address"
        }
      ],
      "name": "renounceRole",
      "outputs": [],
      "stateMutability": "nonpayable",
      "type": "function"
    },
    {
      "inputs": [
        {
          "internalType": "bytes32",
          "name": "role",
          "type": "bytes32"
        },
        {
          "internalType": "address",
          "name": "account",
          "type": "address"
        }
      ],
      "name": "revokeRole",
      "outputs": [],
      "stateMutability": "nonpayable",
      "type": "function"
    },
    {
      "inputs": [
        {
          "internalType": "address",
          "name": "to",
          "type": "address"
        },
        {
          "internalType": "string",
          "name": "uri",
          "type": "string"
        }
      ],
      "name": "safeMint",
      "outputs": [],
      "stateMutability": "nonpayable",
      "type": "function"
    },
    {
      "inputs": [
        {
          "internalType": "address",
          "name": "from",
          "type": "address"
        },
        {
          "internalType": "address",
          "name": "to",
          "type": "address"
        },
        {
          "internalType": "uint256",
          "name": "tokenId",
          "type": "uint256"
        }
      ],
      "name": "safeTransferFrom",
      "outputs": [],
      "stateMutability": "nonpayable",
      "type": "function"
    },
    {
      "inputs": [
        {
          "internalType": "address",
          "name": "from",
          "type": "address"
        },
        {
          "internalType": "address",
          "name": "to",
          "type": "address"
        },
        {
          "internalType": "uint256",
          "name": "tokenId",
          "type": "uint256"
        },
        {
          "internalType": "bytes",
          "name": "data",
          "type": "bytes"
        }
      ],
      "name": "safeTransferFrom",
      "outputs": [],
      "stateMutability": "nonpayable",
      "type": "function"
    },
    {
      "inputs": [
        {
          "internalType": "address",
          "name": "operator",
          "type": "address"
        },
        {
          "internalType": "bool",
          "name": "approved",
          "type": "bool"
        }
      ],
      "name": "setApprovalForAll",
      "outputs": [],
      "stateMutability": "nonpayable",
      "type": "function"
    },
    {
      "inputs": [
        {
          "internalType": "address",
          "name": "_keeperRegistryAddress",
          "type": "address"
        }
      ],
      "name": "setKeeperRegistryAddress",
      "outputs": [],
      "stateMutability": "nonpayable",
      "type": "function"
    },
    {
      "inputs": [
        {
          "internalType": "bytes4",
          "name": "interfaceId",
          "type": "bytes4"
        }
      ],
      "name": "supportsInterface",
      "outputs": [
        {
          "internalType": "bool",
          "name": "",
          "type": "bool"
        }
      ],
      "stateMutability": "view",
      "type": "function"
    },
    {
      "inputs": [],
      "name": "symbol",
      "outputs": [
        {
          "internalType": "string",
          "name": "",
          "type": "string"
        }
      ],
      "stateMutability": "view",
      "type": "function"
    },
    {
      "inputs": [
        {
          "internalType": "uint256",
          "name": "index",
          "type": "uint256"
        }
      ],
      "name": "tokenByIndex",
      "outputs": [
        {
          "internalType": "uint256",
          "name": "",
          "type": "uint256"
        }
      ],
      "stateMutability": "view",
      "type": "function"
    },
    {
      "inputs": [
        {
          "internalType": "address",
          "name": "owner",
          "type": "address"
        },
        {
          "internalType": "uint256",
          "name": "index",
          "type": "uint256"
        }
      ],
      "name": "tokenOfOwnerByIndex",
      "outputs": [
        {
          "internalType": "uint256",
          "name": "",
          "type": "uint256"
        }
      ],
      "stateMutability": "view",
      "type": "function"
    },
    {
      "inputs": [
        {
          "internalType": "uint256",
          "name": "tokenId",
          "type": "uint256"
        }
      ],
      "name": "tokenURI",
      "outputs": [
        {
          "internalType": "string",
          "name": "",
          "type": "string"
        }
      ],
      "stateMutability": "view",
      "type": "function"
    },
    {
      "inputs": [],
      "name": "totalSupply",
      "outputs": [
        {
          "internalType": "uint256",
          "name": "",
          "type": "uint256"
        }
      ],
      "stateMutability": "view",
      "type": "function"
    },
    {
      "inputs": [
        {
          "internalType": "address",
          "name": "from",
          "type": "address"
        },
        {
          "internalType": "address",
          "name": "to",
          "type": "address"
        },
        {
          "internalType": "uint256",
          "name": "tokenId",
          "type": "uint256"
        }
      ],
      "name": "transferFrom",
      "outputs": [],
      "stateMutability": "nonpayable",
      "type": "function"
    },
    {
      "inputs": [
        {
          "internalType": "uint256",
          "name": "proposal",
          "type": "uint256"
        },
        {
          "internalType": "uint256",
          "name": "amount",
          "type": "uint256"
        }
      ],
      "name": "vote",
      "outputs": [],
      "stateMutability": "nonpayable",
      "type": "function"
    },
    {
      "inputs": [],
      "name": "voteToken",
      "outputs": [
        {
          "internalType": "contract IERC20Votes",
          "name": "",
          "type": "address"
        }
      ],
      "stateMutability": "view",
      "type": "function"
    },
    {
      "inputs": [
        {
          "internalType": "address",
          "name": "",
          "type": "address"
        }
      ],
      "name": "voters",
      "outputs": [
        {
          "internalType": "bool",
          "name": "voted",
          "type": "bool"
        },
        {
          "internalType": "uint256",
          "name": "vote",
          "type": "uint256"
        }
      ],
      "stateMutability": "view",
      "type": "function"
    },
    {
      "inputs": [],
      "name": "votingPower",
      "outputs": [
        {
          "internalType": "uint256",
          "name": "votingPower_",
          "type": "uint256"
        }
      ],
      "stateMutability": "view",
      "type": "function"
    },
    {
      "inputs": [],
      "name": "winnerIndex",
      "outputs": [
        {
          "internalType": "uint256",
          "name": "winnerIndex_",
          "type": "uint256"
        }
      ],
      "stateMutability": "view",
      "type": "function"
    }
  ],
  "bytecode": "0x60c06040526000600d55670de0b6b3a764000060a0523480156200002257600080fd5b5060405162003c6538038062003c65833981016040819052620000459162000474565b604080518082018252600b81526a13919510dbdb9d1c9858dd60aa1b60208083019182528351808501909452600384526213919560ea1b9084015281519192916200009391600091620002ec565b508051620000a9906001906020840190620002ec565b50620000bb9150600090503362000247565b620000e77f9f2df0fed2c77648de5860a4cc508cd0818c85b8b8a1ab4ceeef8d981c8956a63362000247565b81518351146200010a576040516329e04b7960e11b815260040160405180910390fd5b603c60805242601555601680546001600160a01b0386166001600160a01b0319918216811790925560118054909116909117905543601355601481905560005b83518110156200023c5760106040518060a0016040528083815260200160008152602001858481518110620001835762000183620005fa565b60200260200101518152602001600115158152602001868481518110620001ae57620001ae620005fa565b6020908102919091018101519091528254600180820185556000948552938290208351600590920201908155828201519381019390935560408201516002840155606082015160038401805460ff191691151591909117905560808201518051929392620002239260048501920190620002ec565b5050508080620002339062000610565b9150506200014a565b505050505062000677565b6000828152600b602090815260408083206001600160a01b038516845290915290205460ff16620002e8576000828152600b602090815260408083206001600160a01b03851684529091529020805460ff19166001179055620002a73390565b6001600160a01b0316816001600160a01b0316837f2f8788117e7eff1d82e926ec794901d17c78024a50270940304540a733656f0d60405160405180910390a45b5050565b828054620002fa906200063a565b90600052602060002090601f0160209004810192826200031e576000855562000369565b82601f106200033957805160ff191683800117855562000369565b8280016001018555821562000369579182015b82811115620003695782518255916020019190600101906200034c565b50620003779291506200037b565b5090565b5b808211156200037757600081556001016200037c565b634e487b7160e01b600052604160045260246000fd5b604051601f8201601f191681016001600160401b0381118282101715620003d357620003d362000392565b604052919050565b60006001600160401b03821115620003f757620003f762000392565b5060051b60200190565b600082601f8301126200041357600080fd5b815160206200042c6200042683620003db565b620003a8565b82815260059290921b840181019181810190868411156200044c57600080fd5b8286015b8481101562000469578051835291830191830162000450565b509695505050505050565b600080600080608085870312156200048b57600080fd5b84516001600160a01b0381168114620004a357600080fd5b602086810151919550906001600160401b0380821115620004c357600080fd5b818801915088601f830112620004d857600080fd5b8151620004e96200042682620003db565b81815260059190911b8301840190848101908b8311156200050957600080fd5b8585015b83811015620005be578051858111156200052657600080fd5b8601603f81018e136200053857600080fd5b87810151868111156200054f576200054f62000392565b62000563601f8201601f19168a01620003a8565b8181528f60408385010111156200057a5760008081fd5b60005b828110156200059b57838101604001518282018c01528a016200057d565b82811115620005ad5760008b84840101525b50855250509186019186016200050d565b5060408b01519098509450505080831115620005d957600080fd5b5050620005e98782880162000401565b606096909601519497939650505050565b634e487b7160e01b600052603260045260246000fd5b60006000198214156200063357634e487b7160e01b600052601160045260246000fd5b5060010190565b600181811c908216806200064f57607f821691505b602082108114156200067157634e487b7160e01b600052602260045260246000fd5b50919050565b60805160a0516135ba620006ab6000396000818161042d01526114710152600081816104d10152610ee901526135ba6000f3fe608060405234801561001057600080fd5b50600436106102955760003560e01c806391d1485411610167578063b88d4fde116100ce578063d547741f11610087578063d547741f14610620578063d878fe0314610633578063d94c8caa14610646578063e985e9c51461064f578063f2f8af251461068b578063f7610d7d146106ab57600080fd5b8063b88d4fde146105a3578063c26c12eb146105b6578063c87b56dd146105be578063cceb68f5146105d1578063d204c45e146105e6578063d5391393146105f957600080fd5b8063a22cb46511610120578063a22cb4651461050b578063a3ec138d1461051e578063a513462014610562578063ab89437c1461056a578063b19c1e211461057d578063b384abef1461059057600080fd5b806391d14854146104a657806394555114146104b9578063947a36fb146104cc57806395d89b41146104f35780639a0e7d66146104fb578063a217fddf1461050357600080fd5b806336568abe1161020b5780635aa6e30e116101c45780635aa6e30e146104285780636352211e1461044f5780636e04ff0d1461046257806370a082311461048357806377174f85146104965780638f00cbfa1461049e57600080fd5b806336568abe146103c05780633f3b3b27146103d357806342842e0e146103dc57806342966c68146103ef5780634585e33b146104025780634f6ccce71461041557600080fd5b8063160d66ae1161025d578063160d66ae1461033f57806318160ddd1461035257806323b872dd14610364578063248a9ca3146103775780632f2ff15d1461039a5780632f745c59146103ad57600080fd5b8063013cf08b1461029a57806301ffc9a7146102c757806306fdde03146102ea578063081812fc146102ff578063095ea7b31461032a575b600080fd5b6102ad6102a8366004612b84565b6106c0565b6040516102be959493929190612bf5565b60405180910390f35b6102da6102d5366004612c43565b610791565b60405190151581526020016102be565b6102f26107a2565b6040516102be9190612c60565b61031261030d366004612b84565b610834565b6040516001600160a01b0390911681526020016102be565b61033d610338366004612c8f565b61085b565b005b601154610312906001600160a01b031681565b6008545b6040519081526020016102be565b61033d610372366004612cb9565b610976565b610356610385366004612b84565b6000908152600b602052604090206001015490565b61033d6103a8366004612cf5565b6109a8565b6103566103bb366004612c8f565b6109cd565b61033d6103ce366004612cf5565b610a63565b61035660155481565b61033d6103ea366004612cb9565b610ae1565b61033d6103fd366004612b84565b610afc565b61033d610410366004612d21565b610b2d565b610356610423366004612b84565b610dee565b6103567f000000000000000000000000000000000000000000000000000000000000000081565b61031261045d366004612b84565b610e81565b610475610470366004612e3f565b610ee1565b6040516102be929190612e74565b610356610491366004612e8f565b610f38565b610356610fbe565b61035661103f565b6102da6104b4366004612cf5565b611072565b61033d6104c7366004612e8f565b61109d565b6103567f000000000000000000000000000000000000000000000000000000000000000081565b6102f2611104565b600d54610356565b610356600081565b61033d610519366004612eaa565b611113565b61054b61052c366004612e8f565b600e602052600090815260409020805460019091015460ff9091169082565b6040805192151583526020830191909152016102be565b61035661111e565b610312610578366004612ee6565b6112b1565b6102f261058b366004612b84565b6112e9565b61033d61059e366004612ee6565b611395565b61033d6105b1366004612f08565b6115e7565b601454610356565b6102f26105cc366004612b84565b61161f565b6105d961162a565b6040516102be9190612f70565b61033d6105f4366004613007565b611754565b6103567f9f2df0fed2c77648de5860a4cc508cd0818c85b8b8a1ab4ceeef8d981c8956a681565b61033d61062e366004612cf5565b6117ad565b601654610312906001600160a01b031681565b61035660135481565b6102da61065d366004613069565b6001600160a01b03918216600090815260056020908152604080832093909416825291909152205460ff1690565b61069e610699366004612b84565b6117d2565b6040516102be9190613093565b6106b361183e565b6040516102be91906130e0565b601081815481106106d057600080fd5b6000918252602090912060059091020180546001820154600283015460038401546004850180549496509294919360ff909116929061070e90613142565b80601f016020809104026020016040519081016040528092919081815260200182805461073a90613142565b80156107875780601f1061075c57610100808354040283529160200191610787565b820191906000526020600020905b81548152906001019060200180831161076a57829003601f168201915b5050505050905085565b600061079c82611a2f565b92915050565b6060600080546107b190613142565b80601f01602080910402602001604051908101604052809291908181526020018280546107dd90613142565b801561082a5780601f106107ff5761010080835404028352916020019161082a565b820191906000526020600020905b81548152906001019060200180831161080d57829003601f168201915b5050505050905090565b600061083f82611a54565b506000908152600460205260409020546001600160a01b031690565b600061086682610e81565b9050806001600160a01b0316836001600160a01b031614156108d95760405162461bcd60e51b815260206004820152602160248201527f4552433732313a20617070726f76616c20746f2063757272656e74206f776e656044820152603960f91b60648201526084015b60405180910390fd5b336001600160a01b03821614806108f557506108f5813361065d565b6109675760405162461bcd60e51b815260206004820152603e60248201527f4552433732313a20617070726f76652063616c6c6572206973206e6f7420746f60448201527f6b656e206f776e6572206e6f7220617070726f76656420666f7220616c6c000060648201526084016108d0565b6109718383611ab3565b505050565b610981335b82611b21565b61099d5760405162461bcd60e51b81526004016108d09061317d565b610971838383611ba0565b6000828152600b60205260409020600101546109c381611d47565b6109718383611d51565b60006109d883610f38565b8210610a3a5760405162461bcd60e51b815260206004820152602b60248201527f455243373231456e756d657261626c653a206f776e657220696e646578206f7560448201526a74206f6620626f756e647360a81b60648201526084016108d0565b506001600160a01b03919091166000908152600660209081526040808320938352929052205490565b6001600160a01b0381163314610ad35760405162461bcd60e51b815260206004820152602f60248201527f416363657373436f6e74726f6c3a2063616e206f6e6c792072656e6f756e636560448201526e103937b632b9903337b91039b2b63360891b60648201526084016108d0565b610add8282611dd7565b5050565b610971838383604051806020016040528060008152506115e7565b610b053361097b565b610b215760405162461bcd60e51b81526004016108d09061317d565b610b2a81611e3e565b50565b6017546001600160a01b03163314610b58576040516334e9a00d60e21b815260040160405180910390fd5b6000610b7260405180602001604052806000815250610ee1565b50905080610bdc5760405162461bcd60e51b815260206004820152603160248201527f5468652074696d6520746f20656c6170736520616e642f6f722071756f72756d604482015270103430b9b713ba103132b2b71036b2ba1760791b60648201526084016108d0565b4260155560006010610bec61111e565b81548110610bfc57610bfc6131cb565b90600052602060002090600502019050600081600401604051602001610c2291906131e1565b6040516020818303038152906040529050600082600201549050600083600001549050600060108281548110610c5a57610c5a6131cb565b60009182526020822060059190910201600301805460ff1916921515929092179091555b82811015610d9d576000610c9182611e47565b604051602001610ca19190613266565b604051602081830303815290604052905060008582604051602001610cc792919061328f565b604051602081830303815290604052905060005b6000858152600f6020526040902054811015610d87576000858152600f602052604090208054610d31919083908110610d1657610d166131cb565b6000918252602090912001546001600160a01b031683611754565b601280546001810182556000919091528251610d74917fbb8a6a4669ba250d26cd7a459eca9d215f8307e33aebe50379bc5a3617ec344401906020850190612ab5565b5080610d7f816132d4565b915050610cdb565b5050508080610d95906132d4565b915050610c7e565b506001840154600d546040517f2bb312a44a3fdcc7a9282009febb1066c80d2beff540528ae125c540406441bb92610ddd928592879060048b01906132ef565b60405180910390a150505050505050565b6000610df960085490565b8210610e5c5760405162461bcd60e51b815260206004820152602c60248201527f455243373231456e756d657261626c653a20676c6f62616c20696e646578206f60448201526b7574206f6620626f756e647360a01b60648201526084016108d0565b60088281548110610e6f57610e6f6131cb565b90600052602060002001549050919050565b6000818152600260205260408120546001600160a01b03168061079c5760405162461bcd60e51b8152602060048201526018602482015277115490cdcc8c4e881a5b9d985b1a59081d1bdad95b88125160421b60448201526064016108d0565b6000606060007f000000000000000000000000000000000000000000000000000000000000000060155442610f169190613391565b1190506000601454600d5410159050818015610f2f5750805b93505050915091565b60006001600160a01b038216610fa25760405162461bcd60e51b815260206004820152602960248201527f4552433732313a2061646472657373207a65726f206973206e6f7420612076616044820152683634b21037bbb732b960b91b60648201526084016108d0565b506001600160a01b031660009081526003602052604090205490565b6016546040516370a0823160e01b81523360048201526000916001600160a01b0316906370a082319060240160206040518083038186803b15801561100257600080fd5b505afa158015611016573d6000803e3d6000fd5b505050506040513d601f19601f8201168201806040525081019061103a91906133a8565b905090565b6000601061104b61111e565b8154811061105b5761105b6131cb565b906000526020600020906005020160000154905090565b6000918252600b602090815260408084206001600160a01b0393909316845291905290205460ff1690565b60006110a881611d47565b6001600160a01b0382166110bb57600080fd5b601780546001600160a01b0319166001600160a01b038416908117909155610add907f9f2df0fed2c77648de5860a4cc508cd0818c85b8b8a1ab4ceeef8d981c8956a690611d51565b6060600180546107b190613142565b610add338383611f45565b601080546040805160208084028201810190925282815260009384938493849084015b8282101561123e57838290600052602060002090600502016040518060a00160405290816000820154815260200160018201548152602001600282015481526020016003820160009054906101000a900460ff161515151581526020016004820180546111ad90613142565b80601f01602080910402602001604051908101604052809291908181526020018280546111d990613142565b80156112265780601f106111fb57610100808354040283529160200191611226565b820191906000526020600020905b81548152906001019060200180831161120957829003601f168201915b50505050508152505081526020019060010190611141565b50505050905060005b81518110156112ab5782828281518110611263576112636131cb565b602002602001015160200151111561129957818181518110611287576112876131cb565b60200260200101516020015192508093505b806112a3816132d4565b915050611247565b50505090565b600f60205281600052604060002081815481106112cd57600080fd5b6000918252602090912001546001600160a01b03169150829050565b601281815481106112f957600080fd5b90600052602060002001600091509050805461131490613142565b80601f016020809104026020016040519081016040528092919081815260200182805461134090613142565b801561138d5780601f106113625761010080835404028352916020019161138d565b820191906000526020600020905b81548152906001019060200180831161137057829003601f168201915b505050505081565b336000908152600e6020526040902060108054849081106113b8576113b86131cb565b600091825260209091206003600590920201015460ff1661141b5760405162461bcd60e51b815260206004820152601c60248201527f50726f706f73616c20766f74696e6720706572696f6420656e6465640000000060448201526064016108d0565b805460ff161561145e5760405162461bcd60e51b815260206004820152600e60248201526d20b63932b0b23c903b37ba32b21760911b60448201526064016108d0565b6000611468610fbe565b905060006114967f0000000000000000000000000000000000000000000000000000000000000000856133c1565b9050808210156114e85760405162461bcd60e51b815260206004820152601b60248201527f486173206e6f7420656e6f75676820766f74696e6720706f776572000000000060448201526064016108d0565b83601086815481106114fc576114fc6131cb565b9060005260206000209060050201600101600082825461151c91906133e0565b9091555050825460ff1916600190811784558301859055600d80548591906000906115489084906133e0565b9091555050601654604051632770a7eb60e21b8152336004820152602481018390526001600160a01b0390911690639dc29fac90604401600060405180830381600087803b15801561159957600080fd5b505af11580156115ad573d6000803e3d6000fd5b50505060009586525050600f6020908152604085208054600181018255908652942090930180546001600160a01b03191633179055505050565b6115f13383611b21565b61160d5760405162461bcd60e51b81526004016108d09061317d565b61161984848484612014565b50505050565b606061079c82612047565b60606010805480602002602001604051908101604052809291908181526020016000905b8282101561174b57838290600052602060002090600502016040518060a00160405290816000820154815260200160018201548152602001600282015481526020016003820160009054906101000a900460ff161515151581526020016004820180546116ba90613142565b80601f01602080910402602001604051908101604052809291908181526020018280546116e690613142565b80156117335780601f1061170857610100808354040283529160200191611733565b820191906000526020600020905b81548152906001019060200180831161171657829003601f168201915b5050505050815250508152602001906001019061164e565b50505050905090565b7f9f2df0fed2c77648de5860a4cc508cd0818c85b8b8a1ab4ceeef8d981c8956a661177e81611d47565b6000611789600c5490565b9050611799600c80546001019055565b6117a38482612150565b611619818461216a565b6000828152600b60205260409020600101546117c881611d47565b6109718383611dd7565b6000818152600f602090815260409182902080548351818402810184019094528084526060939283018282801561183257602002820191906000526020600020905b81546001600160a01b03168152600190910190602001808311611814575b50505050509050919050565b60606000601061184c61111e565b8154811061185c5761185c6131cb565b60009182526020909120600590910201600381015490915060ff16156118c45760405162461bcd60e51b815260206004820152601760248201527f566f74696e67206973207374696c6c206f6e676f696e6700000000000000000060448201526064016108d0565b8054336000908152600e6020526040902060010154146119575760405162461bcd60e51b815260206004820152604260248201527f566f746572206469646e277420766f746520666f72207468652077696e6e696e60448201527f672070726f706f73616c2e205468657265666f72652c20776f6e206e6f7468696064820152616e6760f01b608482015260a4016108d0565b6012805480602002602001604051908101604052809291908181526020016000905b82821015611a2557838290600052602060002001805461199890613142565b80601f01602080910402602001604051908101604052809291908181526020018280546119c490613142565b8015611a115780601f106119e657610100808354040283529160200191611a11565b820191906000526020600020905b8154815290600101906020018083116119f457829003601f168201915b505050505081526020019060010190611979565b5050505091505090565b60006001600160e01b03198216637965db0b60e01b148061079c575061079c82612204565b6000818152600260205260409020546001600160a01b0316610b2a5760405162461bcd60e51b8152602060048201526018602482015277115490cdcc8c4e881a5b9d985b1a59081d1bdad95b88125160421b60448201526064016108d0565b600081815260046020526040902080546001600160a01b0319166001600160a01b0384169081179091558190611ae882610e81565b6001600160a01b03167f8c5be1e5ebec7d5bd14f71427d1e84f3dd0314c0f7b2291e5b200ac8c7c3b92560405160405180910390a45050565b600080611b2d83610e81565b9050806001600160a01b0316846001600160a01b03161480611b7457506001600160a01b0380821660009081526005602090815260408083209388168352929052205460ff165b80611b985750836001600160a01b0316611b8d84610834565b6001600160a01b0316145b949350505050565b826001600160a01b0316611bb382610e81565b6001600160a01b031614611c175760405162461bcd60e51b815260206004820152602560248201527f4552433732313a207472616e736665722066726f6d20696e636f72726563742060448201526437bbb732b960d91b60648201526084016108d0565b6001600160a01b038216611c795760405162461bcd60e51b8152602060048201526024808201527f4552433732313a207472616e7366657220746f20746865207a65726f206164646044820152637265737360e01b60648201526084016108d0565b611c84838383612229565b611c8f600082611ab3565b6001600160a01b0383166000908152600360205260408120805460019290611cb8908490613391565b90915550506001600160a01b0382166000908152600360205260408120805460019290611ce69084906133e0565b909155505060008181526002602052604080822080546001600160a01b0319166001600160a01b0386811691821790925591518493918716917fddf252ad1be2c89b69c2b068fc378daa952ba7f163c4a11628f55a4df523b3ef91a4505050565b610b2a8133612234565b611d5b8282611072565b610add576000828152600b602090815260408083206001600160a01b03851684529091529020805460ff19166001179055611d933390565b6001600160a01b0316816001600160a01b0316837f2f8788117e7eff1d82e926ec794901d17c78024a50270940304540a733656f0d60405160405180910390a45050565b611de18282611072565b15610add576000828152600b602090815260408083206001600160a01b0385168085529252808320805460ff1916905551339285917ff6391f5c32d9c69d2a47ea670b442974b53935d1edc7fd64eb21e047a839171b9190a45050565b610b2a81612298565b606081611e6b5750506040805180820190915260018152600360fc1b602082015290565b8160005b8115611e955780611e7f816132d4565b9150611e8e9050600a8361340e565b9150611e6f565b60008167ffffffffffffffff811115611eb057611eb0612d93565b6040519080825280601f01601f191660200182016040528015611eda576020820181803683370190505b5090505b8415611b9857611eef600183613391565b9150611efc600a86613422565b611f079060306133e0565b60f81b818381518110611f1c57611f1c6131cb565b60200101906001600160f81b031916908160001a905350611f3e600a8661340e565b9450611ede565b816001600160a01b0316836001600160a01b03161415611fa75760405162461bcd60e51b815260206004820152601960248201527f4552433732313a20617070726f766520746f2063616c6c65720000000000000060448201526064016108d0565b6001600160a01b03838116600081815260056020908152604080832094871680845294825291829020805460ff191686151590811790915591519182527f17307eab39ab6107e8899845ad3d59bd9653f200f220920489ca2b5937696c31910160405180910390a3505050565b61201f848484611ba0565b61202b848484846122d8565b6116195760405162461bcd60e51b81526004016108d090613436565b606061205282611a54565b6000828152600a60205260408120805461206b90613142565b80601f016020809104026020016040519081016040528092919081815260200182805461209790613142565b80156120e45780601f106120b9576101008083540402835291602001916120e4565b820191906000526020600020905b8154815290600101906020018083116120c757829003601f168201915b50505050509050600061210260408051602081019091526000815290565b9050805160001415612115575092915050565b81511561214757808260405160200161212f92919061328f565b60405160208183030381529060405292505050919050565b611b98846123e5565b610add828260405180602001604052806000815250612459565b6000828152600260205260409020546001600160a01b03166121e55760405162461bcd60e51b815260206004820152602e60248201527f45524337323155524953746f726167653a2055524920736574206f66206e6f6e60448201526d32bc34b9ba32b73a103a37b5b2b760911b60648201526084016108d0565b6000828152600a60209081526040909120825161097192840190612ab5565b60006001600160e01b0319821663780e9d6360e01b148061079c575061079c8261248c565b6109718383836124dc565b61223e8282611072565b610add57612256816001600160a01b03166014612594565b612261836020612594565b604051602001612272929190613488565b60408051601f198184030181529082905262461bcd60e51b82526108d091600401612c60565b6122a181612730565b6000818152600a6020526040902080546122ba90613142565b159050610b2a576000818152600a60205260408120610b2a91612b39565b60006001600160a01b0384163b156123da57604051630a85bd0160e11b81526001600160a01b0385169063150b7a029061231c9033908990889088906004016134fd565b602060405180830381600087803b15801561233657600080fd5b505af1925050508015612366575060408051601f3d908101601f191682019092526123639181019061353a565b60015b6123c0573d808015612394576040519150601f19603f3d011682016040523d82523d6000602084013e612399565b606091505b5080516123b85760405162461bcd60e51b81526004016108d090613436565b805181602001fd5b6001600160e01b031916630a85bd0160e11b149050611b98565b506001949350505050565b60606123f082611a54565b600061240760408051602081019091526000815290565b905060008151116124275760405180602001604052806000815250612452565b8061243184611e47565b60405160200161244292919061328f565b6040516020818303038152906040525b9392505050565b61246383836127d7565b61247060008484846122d8565b6109715760405162461bcd60e51b81526004016108d090613436565b60006001600160e01b031982166380ac58cd60e01b14806124bd57506001600160e01b03198216635b5e139f60e01b145b8061079c57506301ffc9a760e01b6001600160e01b031983161461079c565b6001600160a01b0383166125375761253281600880546000838152600960205260408120829055600182018355919091527ff3f7a9fe364faab93b216da50a3214154f22a0a2b415b23a84c8169e8b636ee30155565b61255a565b816001600160a01b0316836001600160a01b03161461255a5761255a8382612925565b6001600160a01b03821661257157610971816129c2565b826001600160a01b0316826001600160a01b031614610971576109718282612a71565b606060006125a38360026133c1565b6125ae9060026133e0565b67ffffffffffffffff8111156125c6576125c6612d93565b6040519080825280601f01601f1916602001820160405280156125f0576020820181803683370190505b509050600360fc1b8160008151811061260b5761260b6131cb565b60200101906001600160f81b031916908160001a905350600f60fb1b8160018151811061263a5761263a6131cb565b60200101906001600160f81b031916908160001a905350600061265e8460026133c1565b6126699060016133e0565b90505b60018111156126e1576f181899199a1a9b1b9c1cb0b131b232b360811b85600f166010811061269d5761269d6131cb565b1a60f81b8282815181106126b3576126b36131cb565b60200101906001600160f81b031916908160001a90535060049490941c936126da81613557565b905061266c565b5083156124525760405162461bcd60e51b815260206004820181905260248201527f537472696e67733a20686578206c656e67746820696e73756666696369656e7460448201526064016108d0565b600061273b82610e81565b905061274981600084612229565b612754600083611ab3565b6001600160a01b038116600090815260036020526040812080546001929061277d908490613391565b909155505060008281526002602052604080822080546001600160a01b0319169055518391906001600160a01b038416907fddf252ad1be2c89b69c2b068fc378daa952ba7f163c4a11628f55a4df523b3ef908390a45050565b6001600160a01b03821661282d5760405162461bcd60e51b815260206004820181905260248201527f4552433732313a206d696e7420746f20746865207a65726f206164647265737360448201526064016108d0565b6000818152600260205260409020546001600160a01b0316156128925760405162461bcd60e51b815260206004820152601c60248201527f4552433732313a20746f6b656e20616c7265616479206d696e7465640000000060448201526064016108d0565b61289e60008383612229565b6001600160a01b03821660009081526003602052604081208054600192906128c79084906133e0565b909155505060008181526002602052604080822080546001600160a01b0319166001600160a01b03861690811790915590518392907fddf252ad1be2c89b69c2b068fc378daa952ba7f163c4a11628f55a4df523b3ef908290a45050565b6000600161293284610f38565b61293c9190613391565b60008381526007602052604090205490915080821461298f576001600160a01b03841660009081526006602090815260408083208584528252808320548484528184208190558352600790915290208190555b5060009182526007602090815260408084208490556001600160a01b039094168352600681528383209183525290812055565b6008546000906129d490600190613391565b600083815260096020526040812054600880549394509092849081106129fc576129fc6131cb565b906000526020600020015490508060088381548110612a1d57612a1d6131cb565b6000918252602080832090910192909255828152600990915260408082208490558582528120556008805480612a5557612a5561356e565b6001900381819060005260206000200160009055905550505050565b6000612a7c83610f38565b6001600160a01b039093166000908152600660209081526040808320868452825280832085905593825260079052919091209190915550565b828054612ac190613142565b90600052602060002090601f016020900481019282612ae35760008555612b29565b82601f10612afc57805160ff1916838001178555612b29565b82800160010185558215612b29579182015b82811115612b29578251825591602001919060010190612b0e565b50612b35929150612b6f565b5090565b508054612b4590613142565b6000825580601f10612b55575050565b601f016020900490600052602060002090810190610b2a91905b5b80821115612b355760008155600101612b70565b600060208284031215612b9657600080fd5b5035919050565b60005b83811015612bb8578181015183820152602001612ba0565b838111156116195750506000910152565b60008151808452612be1816020860160208601612b9d565b601f01601f19169290920160200192915050565b858152846020820152836040820152821515606082015260a060808201526000612c2260a0830184612bc9565b979650505050505050565b6001600160e01b031981168114610b2a57600080fd5b600060208284031215612c5557600080fd5b813561245281612c2d565b6020815260006124526020830184612bc9565b80356001600160a01b0381168114612c8a57600080fd5b919050565b60008060408385031215612ca257600080fd5b612cab83612c73565b946020939093013593505050565b600080600060608486031215612cce57600080fd5b612cd784612c73565b9250612ce560208501612c73565b9150604084013590509250925092565b60008060408385031215612d0857600080fd5b82359150612d1860208401612c73565b90509250929050565b60008060208385031215612d3457600080fd5b823567ffffffffffffffff80821115612d4c57600080fd5b818501915085601f830112612d6057600080fd5b813581811115612d6f57600080fd5b866020828501011115612d8157600080fd5b60209290920196919550909350505050565b634e487b7160e01b600052604160045260246000fd5b600067ffffffffffffffff80841115612dc457612dc4612d93565b604051601f8501601f19908116603f01168101908282118183101715612dec57612dec612d93565b81604052809350858152868686011115612e0557600080fd5b858560208301376000602087830101525050509392505050565b600082601f830112612e3057600080fd5b61245283833560208501612da9565b600060208284031215612e5157600080fd5b813567ffffffffffffffff811115612e6857600080fd5b611b9884828501612e1f565b8215158152604060208201526000611b986040830184612bc9565b600060208284031215612ea157600080fd5b61245282612c73565b60008060408385031215612ebd57600080fd5b612ec683612c73565b915060208301358015158114612edb57600080fd5b809150509250929050565b60008060408385031215612ef957600080fd5b50508035926020909101359150565b60008060008060808587031215612f1e57600080fd5b612f2785612c73565b9350612f3560208601612c73565b925060408501359150606085013567ffffffffffffffff811115612f5857600080fd5b612f6487828801612e1f565b91505092959194509250565b60006020808301818452808551808352604092508286019150828160051b87010184880160005b83811015612ff957888303603f190185528151805184528781015188850152868101518785015260608082015115159085015260809081015160a091850182905290612fe581860183612bc9565b968901969450505090860190600101612f97565b509098975050505050505050565b6000806040838503121561301a57600080fd5b61302383612c73565b9150602083013567ffffffffffffffff81111561303f57600080fd5b8301601f8101851361305057600080fd5b61305f85823560208401612da9565b9150509250929050565b6000806040838503121561307c57600080fd5b61308583612c73565b9150612d1860208401612c73565b6020808252825182820181905260009190848201906040850190845b818110156130d45783516001600160a01b0316835292840192918401916001016130af565b50909695505050505050565b6000602080830181845280855180835260408601915060408160051b870101925083870160005b8281101561313557603f19888603018452613123858351612bc9565b94509285019290850190600101613107565b5092979650505050505050565b600181811c9082168061315657607f821691505b6020821081141561317757634e487b7160e01b600052602260045260246000fd5b50919050565b6020808252602e908201527f4552433732313a2063616c6c6572206973206e6f7420746f6b656e206f776e6560408201526d1c881b9bdc88185c1c1c9bdd995960921b606082015260800190565b634e487b7160e01b600052603260045260246000fd5b66697066733a2f2f60c81b815260006007600084546131ff81613142565b60018281168015613217576001811461322c57613135565b60ff1984168887015282880186019450613135565b8860005260208060002060005b858110156132545781548b82018a0152908401908201613239565b50505050950190920195945050505050565b60008251613278818460208701612b9d565b64173539b7b760d91b920191825250600501919050565b600083516132a1818460208801612b9d565b8351908301906132b5818360208801612b9d565b01949350505050565b634e487b7160e01b600052601160045260246000fd5b60006000198214156132e8576132e86132be565b5060010190565b85815260006020868184015285604084015284606084015260a060808401526000845461331b81613142565b8060a087015260c060018084166000811461333d57600181146133515761337f565b60ff1985168984015260e08901955061337f565b896000528660002060005b858110156133775781548b820186015290830190880161335c565b8a0184019650505b50939c9b505050505050505050505050565b6000828210156133a3576133a36132be565b500390565b6000602082840312156133ba57600080fd5b5051919050565b60008160001904831182151516156133db576133db6132be565b500290565b600082198211156133f3576133f36132be565b500190565b634e487b7160e01b600052601260045260246000fd5b60008261341d5761341d6133f8565b500490565b600082613431576134316133f8565b500690565b60208082526032908201527f4552433732313a207472616e7366657220746f206e6f6e20455243373231526560408201527131b2b4bb32b91034b6b83632b6b2b73a32b960711b606082015260800190565b7f416363657373436f6e74726f6c3a206163636f756e74200000000000000000008152600083516134c0816017850160208801612b9d565b7001034b99036b4b9b9b4b733903937b6329607d1b60179184019182015283516134f1816028840160208801612b9d565b01602801949350505050565b6001600160a01b038581168252841660208201526040810183905260806060820181905260009061353090830184612bc9565b9695505050505050565b60006020828403121561354c57600080fd5b815161245281612c2d565b600081613566576135666132be565b506000190190565b634e487b7160e01b600052603160045260246000fdfea2646970667358221220ca684fcd04962bfed3b09cdb43b16f01dfb73c25bdfcdd47e44986426c44a51964736f6c63430008090033",
  "linkReferences": {},
  "deployedLinkReferences": {}
}