{
  "_format": "hh-sol-artifact-1",
  "contractName": "Ballot",
  "sourceName": "contracts/Ballot.sol",
  "address": "",
  "abi": [
    {
      "inputs": [
        {
          "internalType": "address",
          "name": "_voteToken",
          "type": "address"
        },
        {
          "internalType": "string[]",
          "name": "_ipfsFolderCIDs",
          "type": "string[]"
        },
        {
          "internalType": "uint256[]",
          "name": "_collectionsSize",
          "type": "uint256[]"
        },
        {
          "internalType": "uint256",
          "name": "_quorum",
          "type": "uint256"
        }
      ],
      "stateMutability": "nonpayable",
      "type": "constructor"
    },
    {
      "inputs": [],
      "name": "Ballot__Ipfs_CIDs_CollectionSize_Mismatch",
      "type": "error"
    },
    {
      "inputs": [],
      "name": "OnlyKeeperRegistry",
      "type": "error"
    },
    {
      "anonymous": false,
      "inputs": [
        {
          "indexed": true,
          "internalType": "address",
          "name": "owner",
          "type": "address"
        },
        {
          "indexed": true,
          "internalType": "address",
          "name": "approved",
          "type": "address"
        },
        {
          "indexed": true,
          "internalType": "uint256",
          "name": "tokenId",
          "type": "uint256"
        }
      ],
      "name": "Approval",
      "type": "event"
    },
    {
      "anonymous": false,
      "inputs": [
        {
          "indexed": true,
          "internalType": "address",
          "name": "owner",
          "type": "address"
        },
        {
          "indexed": true,
          "internalType": "address",
          "name": "operator",
          "type": "address"
        },
        {
          "indexed": false,
          "internalType": "bool",
          "name": "approved",
          "type": "bool"
        }
      ],
      "name": "ApprovalForAll",
      "type": "event"
    },
    {
      "anonymous": false,
      "inputs": [
        {
          "indexed": true,
          "internalType": "bytes32",
          "name": "role",
          "type": "bytes32"
        },
        {
          "indexed": true,
          "internalType": "bytes32",
          "name": "previousAdminRole",
          "type": "bytes32"
        },
        {
          "indexed": true,
          "internalType": "bytes32",
          "name": "newAdminRole",
          "type": "bytes32"
        }
      ],
      "name": "RoleAdminChanged",
      "type": "event"
    },
    {
      "anonymous": false,
      "inputs": [
        {
          "indexed": true,
          "internalType": "bytes32",
          "name": "role",
          "type": "bytes32"
        },
        {
          "indexed": true,
          "internalType": "address",
          "name": "account",
          "type": "address"
        },
        {
          "indexed": true,
          "internalType": "address",
          "name": "sender",
          "type": "address"
        }
      ],
      "name": "RoleGranted",
      "type": "event"
    },
    {
      "anonymous": false,
      "inputs": [
        {
          "indexed": true,
          "internalType": "bytes32",
          "name": "role",
          "type": "bytes32"
        },
        {
          "indexed": true,
          "internalType": "address",
          "name": "account",
          "type": "address"
        },
        {
          "indexed": true,
          "internalType": "address",
          "name": "sender",
          "type": "address"
        }
      ],
      "name": "RoleRevoked",
      "type": "event"
    },
    {
      "anonymous": false,
      "inputs": [
        {
          "indexed": true,
          "internalType": "address",
          "name": "from",
          "type": "address"
        },
        {
          "indexed": true,
          "internalType": "address",
          "name": "to",
          "type": "address"
        },
        {
          "indexed": true,
          "internalType": "uint256",
          "name": "tokenId",
          "type": "uint256"
        }
      ],
      "name": "Transfer",
      "type": "event"
    },
    {
      "anonymous": false,
      "inputs": [
        {
          "indexed": false,
          "internalType": "uint256",
          "name": "winningProposal",
          "type": "uint256"
        },
        {
          "indexed": false,
          "internalType": "uint256",
          "name": "winningProposalVoteCount",
          "type": "uint256"
        },
        {
          "indexed": false,
          "internalType": "uint256",
          "name": "totalVotes",
          "type": "uint256"
        },
        {
          "indexed": false,
          "internalType": "uint256",
          "name": "winningProposalCollectionSize",
          "type": "uint256"
        },
        {
          "indexed": false,
          "internalType": "string",
          "name": "winningProposalIPFSFolderCID",
          "type": "string"
        }
      ],
      "name": "UpkeepPerformed",
      "type": "event"
    },
    {
      "inputs": [],
      "name": "DEFAULT_ADMIN_ROLE",
      "outputs": [
        {
          "internalType": "bytes32",
          "name": "",
          "type": "bytes32"
        }
      ],
      "stateMutability": "view",
      "type": "function"
    },
    {
      "inputs": [],
      "name": "MINTER_ROLE",
      "outputs": [
        {
          "internalType": "bytes32",
          "name": "",
          "type": "bytes32"
        }
      ],
      "stateMutability": "view",
      "type": "function"
    },
    {
      "inputs": [
        {
          "internalType": "address",
          "name": "to",
          "type": "address"
        },
        {
          "internalType": "uint256",
          "name": "tokenId",
          "type": "uint256"
        }
      ],
      "name": "approve",
      "outputs": [],
      "stateMutability": "nonpayable",
      "type": "function"
    },
    {
      "inputs": [
        {
          "internalType": "address",
          "name": "owner",
          "type": "address"
        }
      ],
      "name": "balanceOf",
      "outputs": [
        {
          "internalType": "uint256",
          "name": "",
          "type": "uint256"
        }
      ],
      "stateMutability": "view",
      "type": "function"
    },
    {
      "inputs": [
        {
          "internalType": "uint256",
          "name": "tokenId",
          "type": "uint256"
        }
      ],
      "name": "burn",
      "outputs": [],
      "stateMutability": "nonpayable",
      "type": "function"
    },
    {
      "inputs": [
        {
          "internalType": "bytes",
          "name": "",
          "type": "bytes"
        }
      ],
      "name": "checkUpkeep",
      "outputs": [
        {
          "internalType": "bool",
          "name": "upkeepNeeded",
          "type": "bool"
        },
        {
          "internalType": "bytes",
          "name": "",
          "type": "bytes"
        }
      ],
      "stateMutability": "view",
      "type": "function"
    },
    {
      "inputs": [
        {
          "internalType": "uint256",
          "name": "",
          "type": "uint256"
        }
      ],
      "name": "collectionTokenUris",
      "outputs": [
        {
          "internalType": "string",
          "name": "",
          "type": "string"
        }
      ],
      "stateMutability": "view",
      "type": "function"
    },
    {
      "inputs": [],
      "name": "ethereumBase",
      "outputs": [
        {
          "internalType": "uint256",
          "name": "",
          "type": "uint256"
        }
      ],
      "stateMutability": "view",
      "type": "function"
    },
    {
      "inputs": [],
      "name": "getAccountCollections",
      "outputs": [
        {
          "internalType": "string[]",
          "name": "",
          "type": "string[]"
        }
      ],
      "stateMutability": "view",
      "type": "function"
    },
    {
      "inputs": [],
      "name": "getAllProposals",
      "outputs": [
        {
          "components": [
            {
              "internalType": "uint256",
              "name": "index",
              "type": "uint256"
            },
            {
              "internalType": "uint256",
              "name": "voteCount",
              "type": "uint256"
            },
            {
              "internalType": "uint256",
              "name": "collectionSize",
              "type": "uint256"
            },
            {
              "internalType": "bool",
              "name": "active",
              "type": "bool"
            },
            {
              "internalType": "string",
              "name": "ipfsFolderCID",
              "type": "string"
            }
          ],
          "internalType": "struct Ballot.Proposal[]",
          "name": "",
          "type": "tuple[]"
        }
      ],
      "stateMutability": "view",
      "type": "function"
    },
    {
      "inputs": [
        {
          "internalType": "uint256",
          "name": "tokenId",
          "type": "uint256"
        }
      ],
      "name": "getApproved",
      "outputs": [
        {
          "internalType": "address",
          "name": "",
          "type": "address"
        }
      ],
      "stateMutability": "view",
      "type": "function"
    },
    {
      "inputs": [],
      "name": "getQuorum",
      "outputs": [
        {
          "internalType": "uint256",
          "name": "",
          "type": "uint256"
        }
      ],
      "stateMutability": "view",
      "type": "function"
    },
    {
      "inputs": [
        {
          "internalType": "bytes32",
          "name": "role",
          "type": "bytes32"
        }
      ],
      "name": "getRoleAdmin",
      "outputs": [
        {
          "internalType": "bytes32",
          "name": "",
          "type": "bytes32"
        }
      ],
      "stateMutability": "view",
      "type": "function"
    },
    {
      "inputs": [],
      "name": "getTotalVotes",
      "outputs": [
        {
          "internalType": "uint256",
          "name": "",
          "type": "uint256"
        }
      ],
      "stateMutability": "view",
      "type": "function"
    },
    {
      "inputs": [],
      "name": "getVotePercentages",
      "outputs": [
        {
          "internalType": "uint256[]",
          "name": "",
          "type": "uint256[]"
        }
      ],
      "stateMutability": "nonpayable",
      "type": "function"
    },
    {
      "inputs": [
        {
          "internalType": "uint256",
          "name": "index",
          "type": "uint256"
        }
      ],
      "name": "getVotersForProposal",
      "outputs": [
        {
          "internalType": "address[]",
          "name": "",
          "type": "address[]"
        }
      ],
      "stateMutability": "view",
      "type": "function"
    },
    {
      "inputs": [],
      "name": "getWinningProposal",
      "outputs": [
        {
          "internalType": "uint256",
          "name": "winningProposal_",
          "type": "uint256"
        }
      ],
      "stateMutability": "view",
      "type": "function"
    },
    {
      "inputs": [],
      "name": "governanceTokenContract",
      "outputs": [
        {
          "internalType": "contract GovernanceToken",
          "name": "",
          "type": "address"
        }
      ],
      "stateMutability": "view",
      "type": "function"
    },
    {
      "inputs": [
        {
          "internalType": "bytes32",
          "name": "role",
          "type": "bytes32"
        },
        {
          "internalType": "address",
          "name": "account",
          "type": "address"
        }
      ],
      "name": "grantRole",
      "outputs": [],
      "stateMutability": "nonpayable",
      "type": "function"
    },
    {
      "inputs": [
        {
          "internalType": "bytes32",
          "name": "role",
          "type": "bytes32"
        },
        {
          "internalType": "address",
          "name": "account",
          "type": "address"
        }
      ],
      "name": "hasRole",
      "outputs": [
        {
          "internalType": "bool",
          "name": "",
          "type": "bool"
        }
      ],
      "stateMutability": "view",
      "type": "function"
    },
    {
      "inputs": [],
      "name": "interval",
      "outputs": [
        {
          "internalType": "uint256",
          "name": "",
          "type": "uint256"
        }
      ],
      "stateMutability": "view",
      "type": "function"
    },
    {
      "inputs": [
        {
          "internalType": "address",
          "name": "owner",
          "type": "address"
        },
        {
          "internalType": "address",
          "name": "operator",
          "type": "address"
        }
      ],
      "name": "isApprovedForAll",
      "outputs": [
        {
          "internalType": "bool",
          "name": "",
          "type": "bool"
        }
      ],
      "stateMutability": "view",
      "type": "function"
    },
    {
      "inputs": [],
      "name": "lastTimeStamp",
      "outputs": [
        {
          "internalType": "uint256",
          "name": "",
          "type": "uint256"
        }
      ],
      "stateMutability": "view",
      "type": "function"
    },
    {
      "inputs": [],
      "name": "name",
      "outputs": [
        {
          "internalType": "string",
          "name": "",
          "type": "string"
        }
      ],
      "stateMutability": "view",
      "type": "function"
    },
    {
      "inputs": [
        {
          "internalType": "uint256",
          "name": "tokenId",
          "type": "uint256"
        }
      ],
      "name": "ownerOf",
      "outputs": [
        {
          "internalType": "address",
          "name": "",
          "type": "address"
        }
      ],
      "stateMutability": "view",
      "type": "function"
    },
    {
      "inputs": [
        {
          "internalType": "bytes",
          "name": "",
          "type": "bytes"
        }
      ],
      "name": "performUpkeep",
      "outputs": [],
      "stateMutability": "nonpayable",
      "type": "function"
    },
    {
      "inputs": [
        {
          "internalType": "uint256",
          "name": "",
          "type": "uint256"
        },
        {
          "internalType": "uint256",
          "name": "",
          "type": "uint256"
        }
      ],
      "name": "proposalVoters",
      "outputs": [
        {
          "internalType": "address",
          "name": "",
          "type": "address"
        }
      ],
      "stateMutability": "view",
      "type": "function"
    },
    {
      "inputs": [
        {
          "internalType": "uint256",
          "name": "",
          "type": "uint256"
        }
      ],
      "name": "proposals",
      "outputs": [
        {
          "internalType": "uint256",
          "name": "index",
          "type": "uint256"
        },
        {
          "internalType": "uint256",
          "name": "voteCount",
          "type": "uint256"
        },
        {
          "internalType": "uint256",
          "name": "collectionSize",
          "type": "uint256"
        },
        {
          "internalType": "bool",
          "name": "active",
          "type": "bool"
        },
        {
          "internalType": "string",
          "name": "ipfsFolderCID",
          "type": "string"
        }
      ],
      "stateMutability": "view",
      "type": "function"
    },
    {
      "inputs": [],
      "name": "referenceBlock",
      "outputs": [
        {
          "internalType": "uint256",
          "name": "",
          "type": "uint256"
        }
      ],
      "stateMutability": "view",
      "type": "function"
    },
    {
      "inputs": [
        {
          "internalType": "bytes32",
          "name": "role",
          "type": "bytes32"
        },
        {
          "internalType": "address",
          "name": "account",
          "type": "address"
        }
      ],
      "name": "renounceRole",
      "outputs": [],
      "stateMutability": "nonpayable",
      "type": "function"
    },
    {
      "inputs": [
        {
          "internalType": "bytes32",
          "name": "role",
          "type": "bytes32"
        },
        {
          "internalType": "address",
          "name": "account",
          "type": "address"
        }
      ],
      "name": "revokeRole",
      "outputs": [],
      "stateMutability": "nonpayable",
      "type": "function"
    },
    {
      "inputs": [
        {
          "internalType": "address",
          "name": "to",
          "type": "address"
        },
        {
          "internalType": "string",
          "name": "uri",
          "type": "string"
        }
      ],
      "name": "safeMint",
      "outputs": [],
      "stateMutability": "nonpayable",
      "type": "function"
    },
    {
      "inputs": [
        {
          "internalType": "address",
          "name": "from",
          "type": "address"
        },
        {
          "internalType": "address",
          "name": "to",
          "type": "address"
        },
        {
          "internalType": "uint256",
          "name": "tokenId",
          "type": "uint256"
        }
      ],
      "name": "safeTransferFrom",
      "outputs": [],
      "stateMutability": "nonpayable",
      "type": "function"
    },
    {
      "inputs": [
        {
          "internalType": "address",
          "name": "from",
          "type": "address"
        },
        {
          "internalType": "address",
          "name": "to",
          "type": "address"
        },
        {
          "internalType": "uint256",
          "name": "tokenId",
          "type": "uint256"
        },
        {
          "internalType": "bytes",
          "name": "data",
          "type": "bytes"
        }
      ],
      "name": "safeTransferFrom",
      "outputs": [],
      "stateMutability": "nonpayable",
      "type": "function"
    },
    {
      "inputs": [
        {
          "internalType": "address",
          "name": "operator",
          "type": "address"
        },
        {
          "internalType": "bool",
          "name": "approved",
          "type": "bool"
        }
      ],
      "name": "setApprovalForAll",
      "outputs": [],
      "stateMutability": "nonpayable",
      "type": "function"
    },
    {
      "inputs": [
        {
          "internalType": "address",
          "name": "_keeperRegistryAddress",
          "type": "address"
        }
      ],
      "name": "setKeeperRegistryAddress",
      "outputs": [],
      "stateMutability": "nonpayable",
      "type": "function"
    },
    {
      "inputs": [
        {
          "internalType": "bytes4",
          "name": "interfaceId",
          "type": "bytes4"
        }
      ],
      "name": "supportsInterface",
      "outputs": [
        {
          "internalType": "bool",
          "name": "",
          "type": "bool"
        }
      ],
      "stateMutability": "view",
      "type": "function"
    },
    {
      "inputs": [],
      "name": "symbol",
      "outputs": [
        {
          "internalType": "string",
          "name": "",
          "type": "string"
        }
      ],
      "stateMutability": "view",
      "type": "function"
    },
    {
      "inputs": [
        {
          "internalType": "uint256",
          "name": "index",
          "type": "uint256"
        }
      ],
      "name": "tokenByIndex",
      "outputs": [
        {
          "internalType": "uint256",
          "name": "",
          "type": "uint256"
        }
      ],
      "stateMutability": "view",
      "type": "function"
    },
    {
      "inputs": [
        {
          "internalType": "address",
          "name": "owner",
          "type": "address"
        },
        {
          "internalType": "uint256",
          "name": "index",
          "type": "uint256"
        }
      ],
      "name": "tokenOfOwnerByIndex",
      "outputs": [
        {
          "internalType": "uint256",
          "name": "",
          "type": "uint256"
        }
      ],
      "stateMutability": "view",
      "type": "function"
    },
    {
      "inputs": [
        {
          "internalType": "uint256",
          "name": "tokenId",
          "type": "uint256"
        }
      ],
      "name": "tokenURI",
      "outputs": [
        {
          "internalType": "string",
          "name": "",
          "type": "string"
        }
      ],
      "stateMutability": "view",
      "type": "function"
    },
    {
      "inputs": [],
      "name": "totalSupply",
      "outputs": [
        {
          "internalType": "uint256",
          "name": "",
          "type": "uint256"
        }
      ],
      "stateMutability": "view",
      "type": "function"
    },
    {
      "inputs": [],
      "name": "totalVoteCount",
      "outputs": [
        {
          "internalType": "uint256",
          "name": "",
          "type": "uint256"
        }
      ],
      "stateMutability": "view",
      "type": "function"
    },
    {
      "inputs": [
        {
          "internalType": "address",
          "name": "from",
          "type": "address"
        },
        {
          "internalType": "address",
          "name": "to",
          "type": "address"
        },
        {
          "internalType": "uint256",
          "name": "tokenId",
          "type": "uint256"
        }
      ],
      "name": "transferFrom",
      "outputs": [],
      "stateMutability": "nonpayable",
      "type": "function"
    },
    {
      "inputs": [
        {
          "internalType": "uint256",
          "name": "proposal",
          "type": "uint256"
        },
        {
          "internalType": "uint256",
          "name": "amount",
          "type": "uint256"
        }
      ],
      "name": "vote",
      "outputs": [],
      "stateMutability": "nonpayable",
      "type": "function"
    },
    {
      "inputs": [
        {
          "internalType": "uint256",
          "name": "",
          "type": "uint256"
        }
      ],
      "name": "votePercentages",
      "outputs": [
        {
          "internalType": "uint256",
          "name": "",
          "type": "uint256"
        }
      ],
      "stateMutability": "view",
      "type": "function"
    },
    {
      "inputs": [],
      "name": "voteToken",
      "outputs": [
        {
          "internalType": "contract IERC20Votes",
          "name": "",
          "type": "address"
        }
      ],
      "stateMutability": "view",
      "type": "function"
    },
    {
      "inputs": [
        {
          "internalType": "address",
          "name": "",
          "type": "address"
        }
      ],
      "name": "voters",
      "outputs": [
        {
          "internalType": "bool",
          "name": "voted",
          "type": "bool"
        },
        {
          "internalType": "uint256",
          "name": "vote",
          "type": "uint256"
        }
      ],
      "stateMutability": "view",
      "type": "function"
    },
    {
      "inputs": [],
      "name": "votingPower",
      "outputs": [
        {
          "internalType": "uint256",
          "name": "votingPower_",
          "type": "uint256"
        }
      ],
      "stateMutability": "view",
      "type": "function"
    },
    {
      "inputs": [],
      "name": "winnerIndex",
      "outputs": [
        {
          "internalType": "uint256",
          "name": "winnerIndex_",
          "type": "uint256"
        }
      ],
      "stateMutability": "view",
      "type": "function"
    }
  ],
  "bytecode": "0x60c06040526000600d55670de0b6b3a764000060a0523480156200002257600080fd5b5060405162003e3a38038062003e3a833981016040819052620000459162000474565b604080518082018252600b81526a13919510dbdb9d1c9858dd60aa1b60208083019182528351808501909452600384526213919560ea1b9084015281519192916200009391600091620002ec565b508051620000a9906001906020840190620002ec565b50620000bb9150600090503362000247565b620000e77f9f2df0fed2c77648de5860a4cc508cd0818c85b8b8a1ab4ceeef8d981c8956a63362000247565b81518351146200010a5760405163bc4cf5a360e01b815260040160405180910390fd5b603c60805242601755601880546001600160a01b0386166001600160a01b0319918216811790925560118054909116909117905543601355601481905560005b83518110156200023c5760106040518060a0016040528083815260200160008152602001858481518110620001835762000183620005fa565b60200260200101518152602001600115158152602001868481518110620001ae57620001ae620005fa565b6020908102919091018101519091528254600180820185556000948552938290208351600590920201908155828201519381019390935560408201516002840155606082015160038401805460ff191691151591909117905560808201518051929392620002239260048501920190620002ec565b5050508080620002339062000610565b9150506200014a565b505050505062000677565b6000828152600b602090815260408083206001600160a01b038516845290915290205460ff16620002e8576000828152600b602090815260408083206001600160a01b03851684529091529020805460ff19166001179055620002a73390565b6001600160a01b0316816001600160a01b0316837f2f8788117e7eff1d82e926ec794901d17c78024a50270940304540a733656f0d60405160405180910390a45b5050565b828054620002fa906200063a565b90600052602060002090601f0160209004810192826200031e576000855562000369565b82601f106200033957805160ff191683800117855562000369565b8280016001018555821562000369579182015b82811115620003695782518255916020019190600101906200034c565b50620003779291506200037b565b5090565b5b808211156200037757600081556001016200037c565b634e487b7160e01b600052604160045260246000fd5b604051601f8201601f191681016001600160401b0381118282101715620003d357620003d362000392565b604052919050565b60006001600160401b03821115620003f757620003f762000392565b5060051b60200190565b600082601f8301126200041357600080fd5b815160206200042c6200042683620003db565b620003a8565b82815260059290921b840181019181810190868411156200044c57600080fd5b8286015b8481101562000469578051835291830191830162000450565b509695505050505050565b600080600080608085870312156200048b57600080fd5b84516001600160a01b0381168114620004a357600080fd5b602086810151919550906001600160401b0380821115620004c357600080fd5b818801915088601f830112620004d857600080fd5b8151620004e96200042682620003db565b81815260059190911b8301840190848101908b8311156200050957600080fd5b8585015b83811015620005be578051858111156200052657600080fd5b8601603f81018e136200053857600080fd5b87810151868111156200054f576200054f62000392565b62000563601f8201601f19168a01620003a8565b8181528f60408385010111156200057a5760008081fd5b60005b828110156200059b57838101604001518282018c01528a016200057d565b82811115620005ad5760008b84840101525b50855250509186019186016200050d565b5060408b01519098509450505080831115620005d957600080fd5b5050620005e98782880162000401565b606096909601519497939650505050565b634e487b7160e01b600052603260045260246000fd5b60006000198214156200063357634e487b7160e01b600052601160045260246000fd5b5060010190565b600181811c908216806200064f57607f821691505b602082108114156200067157634e487b7160e01b600052602260045260246000fd5b50919050565b60805160a05161378f620006ab6000396000818161046e01526114e301526000818161051b0152610f5b015261378f6000f3fe608060405234801561001057600080fd5b50600436106102d65760003560e01c80639455511411610182578063c26c12eb116100e9578063d878fe03116100a2578063ed2528611161007c578063ed252861146106d5578063f1b055bb146106ea578063f2f8af25146106fd578063f7610d7d1461071d57600080fd5b8063d878fe031461067d578063d94c8caa14610690578063e985e9c51461069957600080fd5b8063c26c12eb14610600578063c87b56dd14610608578063cceb68f51461061b578063d204c45e14610630578063d539139314610643578063d547741f1461066a57600080fd5b8063a3ec138d1161013b578063a3ec138d14610568578063a5134620146105ac578063ab89437c146105b4578063b19c1e21146105c7578063b384abef146105da578063b88d4fde146105ed57600080fd5b80639455511414610503578063947a36fb1461051657806395d89b411461053d5780639a0e7d6614610545578063a217fddf1461054d578063a22cb4651461055557600080fd5b80633f3b3b27116102415780636352211e116101fa57806377174f85116101d457806377174f85146104d7578063893d8f4c146104df5780638f00cbfa146104e857806391d14854146104f057600080fd5b80636352211e146104905780636e04ff0d146104a357806370a08231146104c457600080fd5b80633f3b3b271461041457806342842e0e1461041d57806342966c68146104305780634585e33b146104435780634f6ccce7146104565780635aa6e30e1461046957600080fd5b806318160ddd1161029357806318160ddd1461039357806323b872dd146103a5578063248a9ca3146103b85780632f2ff15d146103db5780632f745c59146103ee57806336568abe1461040157600080fd5b8063013cf08b146102db57806301ffc9a71461030857806306fdde031461032b578063081812fc14610340578063095ea7b31461036b578063160d66ae14610380575b600080fd5b6102ee6102e9366004612d21565b610732565b6040516102ff959493929190612d92565b60405180910390f35b61031b610316366004612de0565b610803565b60405190151581526020016102ff565b610333610814565b6040516102ff9190612dfd565b61035361034e366004612d21565b6108a6565b6040516001600160a01b0390911681526020016102ff565b61037e610379366004612e2c565b6108cd565b005b601154610353906001600160a01b031681565b6008545b6040519081526020016102ff565b61037e6103b3366004612e56565b6109e8565b6103976103c6366004612d21565b6000908152600b602052604090206001015490565b61037e6103e9366004612e92565b610a1a565b6103976103fc366004612e2c565b610a3f565b61037e61040f366004612e92565b610ad5565b61039760175481565b61037e61042b366004612e56565b610b53565b61037e61043e366004612d21565b610b6e565b61037e610451366004612ebe565b610b9f565b610397610464366004612d21565b610e60565b6103977f000000000000000000000000000000000000000000000000000000000000000081565b61035361049e366004612d21565b610ef3565b6104b66104b1366004612fdc565b610f53565b6040516102ff929190613011565b6103976104d236600461302c565b610faa565b610397611030565b61039760155481565b6103976110b1565b61031b6104fe366004612e92565b6110e4565b61037e61051136600461302c565b61110f565b6103977f000000000000000000000000000000000000000000000000000000000000000081565b610333611176565b600d54610397565b610397600081565b61037e610563366004613047565b611185565b61059561057636600461302c565b600e602052600090815260409020805460019091015460ff9091169082565b6040805192151583526020830191909152016102ff565b610397611190565b6103536105c2366004613083565b611323565b6103336105d5366004612d21565b61135b565b61037e6105e8366004613083565b611407565b61037e6105fb3660046130a5565b611695565b601454610397565b610333610616366004612d21565b6116cd565b6106236116d8565b6040516102ff919061310d565b61037e61063e3660046131a4565b611802565b6103977f9f2df0fed2c77648de5860a4cc508cd0818c85b8b8a1ab4ceeef8d981c8956a681565b61037e610678366004612e92565b61185b565b601854610353906001600160a01b031681565b61039760135481565b61031b6106a7366004613206565b6001600160a01b03918216600090815260056020908152604080832093909416825291909152205460ff1690565b6106dd611880565b6040516102ff9190613230565b6103976106f8366004612d21565b61194e565b61071061070b366004612d21565b61196f565b6040516102ff9190613274565b6107256119db565b6040516102ff91906132b5565b6010818154811061074257600080fd5b6000918252602090912060059091020180546001820154600283015460038401546004850180549496509294919360ff909116929061078090613317565b80601f01602080910402602001604051908101604052809291908181526020018280546107ac90613317565b80156107f95780601f106107ce576101008083540402835291602001916107f9565b820191906000526020600020905b8154815290600101906020018083116107dc57829003601f168201915b5050505050905085565b600061080e82611bcc565b92915050565b60606000805461082390613317565b80601f016020809104026020016040519081016040528092919081815260200182805461084f90613317565b801561089c5780601f106108715761010080835404028352916020019161089c565b820191906000526020600020905b81548152906001019060200180831161087f57829003601f168201915b5050505050905090565b60006108b182611bf1565b506000908152600460205260409020546001600160a01b031690565b60006108d882610ef3565b9050806001600160a01b0316836001600160a01b0316141561094b5760405162461bcd60e51b815260206004820152602160248201527f4552433732313a20617070726f76616c20746f2063757272656e74206f776e656044820152603960f91b60648201526084015b60405180910390fd5b336001600160a01b0382161480610967575061096781336106a7565b6109d95760405162461bcd60e51b815260206004820152603e60248201527f4552433732313a20617070726f76652063616c6c6572206973206e6f7420746f60448201527f6b656e206f776e6572206e6f7220617070726f76656420666f7220616c6c00006064820152608401610942565b6109e38383611c50565b505050565b6109f3335b82611cbe565b610a0f5760405162461bcd60e51b815260040161094290613352565b6109e3838383611d3d565b6000828152600b6020526040902060010154610a3581611ee4565b6109e38383611eee565b6000610a4a83610faa565b8210610aac5760405162461bcd60e51b815260206004820152602b60248201527f455243373231456e756d657261626c653a206f776e657220696e646578206f7560448201526a74206f6620626f756e647360a81b6064820152608401610942565b506001600160a01b03919091166000908152600660209081526040808320938352929052205490565b6001600160a01b0381163314610b455760405162461bcd60e51b815260206004820152602f60248201527f416363657373436f6e74726f6c3a2063616e206f6e6c792072656e6f756e636560448201526e103937b632b9903337b91039b2b63360891b6064820152608401610942565b610b4f8282611f74565b5050565b6109e383838360405180602001604052806000815250611695565b610b77336109ed565b610b935760405162461bcd60e51b815260040161094290613352565b610b9c81611fdb565b50565b6019546001600160a01b03163314610bca576040516334e9a00d60e21b815260040160405180910390fd5b6000610be460405180602001604052806000815250610f53565b50905080610c4e5760405162461bcd60e51b815260206004820152603160248201527f5468652074696d6520746f20656c6170736520616e642f6f722071756f72756d604482015270103430b9b713ba103132b2b71036b2ba1760791b6064820152608401610942565b4260175560006010610c5e611190565b81548110610c6e57610c6e6133a0565b90600052602060002090600502019050600081600401604051602001610c9491906133b6565b6040516020818303038152906040529050600082600201549050600083600001549050600060108281548110610ccc57610ccc6133a0565b60009182526020822060059190910201600301805460ff1916921515929092179091555b82811015610e0f576000610d0382611fe4565b604051602001610d13919061343b565b604051602081830303815290604052905060008582604051602001610d39929190613464565b604051602081830303815290604052905060005b6000858152600f6020526040902054811015610df9576000858152600f602052604090208054610da3919083908110610d8857610d886133a0565b6000918252602090912001546001600160a01b031683611802565b601280546001810182556000919091528251610de6917fbb8a6a4669ba250d26cd7a459eca9d215f8307e33aebe50379bc5a3617ec344401906020850190612c52565b5080610df1816134a9565b915050610d4d565b5050508080610e07906134a9565b915050610cf0565b506001840154600d546040517f2bb312a44a3fdcc7a9282009febb1066c80d2beff540528ae125c540406441bb92610e4f928592879060048b01906134c4565b60405180910390a150505050505050565b6000610e6b60085490565b8210610ece5760405162461bcd60e51b815260206004820152602c60248201527f455243373231456e756d657261626c653a20676c6f62616c20696e646578206f60448201526b7574206f6620626f756e647360a01b6064820152608401610942565b60088281548110610ee157610ee16133a0565b90600052602060002001549050919050565b6000818152600260205260408120546001600160a01b03168061080e5760405162461bcd60e51b8152602060048201526018602482015277115490cdcc8c4e881a5b9d985b1a59081d1bdad95b88125160421b6044820152606401610942565b6000606060007f000000000000000000000000000000000000000000000000000000000000000060175442610f889190613566565b1190506000601454600d5410159050818015610fa15750805b93505050915091565b60006001600160a01b0382166110145760405162461bcd60e51b815260206004820152602960248201527f4552433732313a2061646472657373207a65726f206973206e6f7420612076616044820152683634b21037bbb732b960b91b6064820152608401610942565b506001600160a01b031660009081526003602052604090205490565b6018546040516370a0823160e01b81523360048201526000916001600160a01b0316906370a082319060240160206040518083038186803b15801561107457600080fd5b505afa158015611088573d6000803e3d6000fd5b505050506040513d601f19601f820116820180604052508101906110ac919061357d565b905090565b600060106110bd611190565b815481106110cd576110cd6133a0565b906000526020600020906005020160000154905090565b6000918252600b602090815260408084206001600160a01b0393909316845291905290205460ff1690565b600061111a81611ee4565b6001600160a01b03821661112d57600080fd5b601980546001600160a01b0319166001600160a01b038416908117909155610b4f907f9f2df0fed2c77648de5860a4cc508cd0818c85b8b8a1ab4ceeef8d981c8956a690611eee565b60606001805461082390613317565b610b4f3383836120e2565b601080546040805160208084028201810190925282815260009384938493849084015b828210156112b057838290600052602060002090600502016040518060a00160405290816000820154815260200160018201548152602001600282015481526020016003820160009054906101000a900460ff1615151515815260200160048201805461121f90613317565b80601f016020809104026020016040519081016040528092919081815260200182805461124b90613317565b80156112985780601f1061126d57610100808354040283529160200191611298565b820191906000526020600020905b81548152906001019060200180831161127b57829003601f168201915b505050505081525050815260200190600101906111b3565b50505050905060005b815181101561131d57828282815181106112d5576112d56133a0565b602002602001015160200151111561130b578181815181106112f9576112f96133a0565b60200260200101516020015192508093505b80611315816134a9565b9150506112b9565b50505090565b600f602052816000526040600020818154811061133f57600080fd5b6000918252602090912001546001600160a01b03169150829050565b6012818154811061136b57600080fd5b90600052602060002001600091509050805461138690613317565b80601f01602080910402602001604051908101604052809291908181526020018280546113b290613317565b80156113ff5780601f106113d4576101008083540402835291602001916113ff565b820191906000526020600020905b8154815290600101906020018083116113e257829003601f168201915b505050505081565b336000908152600e60205260409020601080548490811061142a5761142a6133a0565b600091825260209091206003600590920201015460ff1661148d5760405162461bcd60e51b815260206004820152601c60248201527f50726f706f73616c20766f74696e6720706572696f6420656e646564000000006044820152606401610942565b805460ff16156114d05760405162461bcd60e51b815260206004820152600e60248201526d20b63932b0b23c903b37ba32b21760911b6044820152606401610942565b60006114da611030565b905060006115087f000000000000000000000000000000000000000000000000000000000000000085613596565b90508082101561155a5760405162461bcd60e51b815260206004820152601b60248201527f486173206e6f7420656e6f75676820766f74696e6720706f77657200000000006044820152606401610942565b836010868154811061156e5761156e6133a0565b9060005260206000209060050201600101600082825461158e91906135b5565b909155505060108054869081106115a7576115a76133a0565b906000526020600020906005020160010154601560008282546115ca91906135b5565b9091555050825460ff1916600190811784558301859055600d80548591906000906115f69084906135b5565b9091555050601854604051632770a7eb60e21b8152336004820152602481018390526001600160a01b0390911690639dc29fac90604401600060405180830381600087803b15801561164757600080fd5b505af115801561165b573d6000803e3d6000fd5b50505060009586525050600f6020908152604085208054600181018255908652942090930180546001600160a01b03191633179055505050565b61169f3383611cbe565b6116bb5760405162461bcd60e51b815260040161094290613352565b6116c7848484846121b1565b50505050565b606061080e826121e4565b60606010805480602002602001604051908101604052809291908181526020016000905b828210156117f957838290600052602060002090600502016040518060a00160405290816000820154815260200160018201548152602001600282015481526020016003820160009054906101000a900460ff1615151515815260200160048201805461176890613317565b80601f016020809104026020016040519081016040528092919081815260200182805461179490613317565b80156117e15780601f106117b6576101008083540402835291602001916117e1565b820191906000526020600020905b8154815290600101906020018083116117c457829003601f168201915b505050505081525050815260200190600101906116fc565b50505050905090565b7f9f2df0fed2c77648de5860a4cc508cd0818c85b8b8a1ab4ceeef8d981c8956a661182c81611ee4565b6000611837600c5490565b9050611847600c80546001019055565b61185184826122ed565b6116c78184612307565b6000828152600b602052604090206001015461187681611ee4565b6109e38383611f74565b606060005b6010548110156118f8576016601554601083815481106118a7576118a76133a0565b9060005260206000209060050201600101546127106118c69190613596565b6118d091906135e3565b81546001810183556000928352602090922090910155806118f0816134a9565b915050611885565b50601680548060200260200160405190810160405280929190818152602001828054801561089c57602002820191906000526020600020905b815481526020019060010190808311611931575050505050905090565b6016818154811061195e57600080fd5b600091825260209091200154905081565b6000818152600f60209081526040918290208054835181840281018401909452808452606093928301828280156119cf57602002820191906000526020600020905b81546001600160a01b031681526001909101906020018083116119b1575b50505050509050919050565b6060600060106119e9611190565b815481106119f9576119f96133a0565b60009182526020909120600590910201600381015490915060ff1615611a615760405162461bcd60e51b815260206004820152601760248201527f566f74696e67206973207374696c6c206f6e676f696e670000000000000000006044820152606401610942565b8054336000908152600e602052604090206001015414611af45760405162461bcd60e51b815260206004820152604260248201527f566f746572206469646e277420766f746520666f72207468652077696e6e696e60448201527f672070726f706f73616c2e205468657265666f72652c20776f6e206e6f7468696064820152616e6760f01b608482015260a401610942565b6012805480602002602001604051908101604052809291908181526020016000905b82821015611bc2578382906000526020600020018054611b3590613317565b80601f0160208091040260200160405190810160405280929190818152602001828054611b6190613317565b8015611bae5780601f10611b8357610100808354040283529160200191611bae565b820191906000526020600020905b815481529060010190602001808311611b9157829003601f168201915b505050505081526020019060010190611b16565b5050505091505090565b60006001600160e01b03198216637965db0b60e01b148061080e575061080e826123a1565b6000818152600260205260409020546001600160a01b0316610b9c5760405162461bcd60e51b8152602060048201526018602482015277115490cdcc8c4e881a5b9d985b1a59081d1bdad95b88125160421b6044820152606401610942565b600081815260046020526040902080546001600160a01b0319166001600160a01b0384169081179091558190611c8582610ef3565b6001600160a01b03167f8c5be1e5ebec7d5bd14f71427d1e84f3dd0314c0f7b2291e5b200ac8c7c3b92560405160405180910390a45050565b600080611cca83610ef3565b9050806001600160a01b0316846001600160a01b03161480611d1157506001600160a01b0380821660009081526005602090815260408083209388168352929052205460ff165b80611d355750836001600160a01b0316611d2a846108a6565b6001600160a01b0316145b949350505050565b826001600160a01b0316611d5082610ef3565b6001600160a01b031614611db45760405162461bcd60e51b815260206004820152602560248201527f4552433732313a207472616e736665722066726f6d20696e636f72726563742060448201526437bbb732b960d91b6064820152608401610942565b6001600160a01b038216611e165760405162461bcd60e51b8152602060048201526024808201527f4552433732313a207472616e7366657220746f20746865207a65726f206164646044820152637265737360e01b6064820152608401610942565b611e218383836123c6565b611e2c600082611c50565b6001600160a01b0383166000908152600360205260408120805460019290611e55908490613566565b90915550506001600160a01b0382166000908152600360205260408120805460019290611e839084906135b5565b909155505060008181526002602052604080822080546001600160a01b0319166001600160a01b0386811691821790925591518493918716917fddf252ad1be2c89b69c2b068fc378daa952ba7f163c4a11628f55a4df523b3ef91a4505050565b610b9c81336123d1565b611ef882826110e4565b610b4f576000828152600b602090815260408083206001600160a01b03851684529091529020805460ff19166001179055611f303390565b6001600160a01b0316816001600160a01b0316837f2f8788117e7eff1d82e926ec794901d17c78024a50270940304540a733656f0d60405160405180910390a45050565b611f7e82826110e4565b15610b4f576000828152600b602090815260408083206001600160a01b0385168085529252808320805460ff1916905551339285917ff6391f5c32d9c69d2a47ea670b442974b53935d1edc7fd64eb21e047a839171b9190a45050565b610b9c81612435565b6060816120085750506040805180820190915260018152600360fc1b602082015290565b8160005b8115612032578061201c816134a9565b915061202b9050600a836135e3565b915061200c565b60008167ffffffffffffffff81111561204d5761204d612f30565b6040519080825280601f01601f191660200182016040528015612077576020820181803683370190505b5090505b8415611d355761208c600183613566565b9150612099600a866135f7565b6120a49060306135b5565b60f81b8183815181106120b9576120b96133a0565b60200101906001600160f81b031916908160001a9053506120db600a866135e3565b945061207b565b816001600160a01b0316836001600160a01b031614156121445760405162461bcd60e51b815260206004820152601960248201527f4552433732313a20617070726f766520746f2063616c6c6572000000000000006044820152606401610942565b6001600160a01b03838116600081815260056020908152604080832094871680845294825291829020805460ff191686151590811790915591519182527f17307eab39ab6107e8899845ad3d59bd9653f200f220920489ca2b5937696c31910160405180910390a3505050565b6121bc848484611d3d565b6121c884848484612475565b6116c75760405162461bcd60e51b81526004016109429061360b565b60606121ef82611bf1565b6000828152600a60205260408120805461220890613317565b80601f016020809104026020016040519081016040528092919081815260200182805461223490613317565b80156122815780601f1061225657610100808354040283529160200191612281565b820191906000526020600020905b81548152906001019060200180831161226457829003601f168201915b50505050509050600061229f60408051602081019091526000815290565b90508051600014156122b2575092915050565b8151156122e45780826040516020016122cc929190613464565b60405160208183030381529060405292505050919050565b611d3584612582565b610b4f8282604051806020016040528060008152506125f6565b6000828152600260205260409020546001600160a01b03166123825760405162461bcd60e51b815260206004820152602e60248201527f45524337323155524953746f726167653a2055524920736574206f66206e6f6e60448201526d32bc34b9ba32b73a103a37b5b2b760911b6064820152608401610942565b6000828152600a6020908152604090912082516109e392840190612c52565b60006001600160e01b0319821663780e9d6360e01b148061080e575061080e82612629565b6109e3838383612679565b6123db82826110e4565b610b4f576123f3816001600160a01b03166014612731565b6123fe836020612731565b60405160200161240f92919061365d565b60408051601f198184030181529082905262461bcd60e51b825261094291600401612dfd565b61243e816128cd565b6000818152600a60205260409020805461245790613317565b159050610b9c576000818152600a60205260408120610b9c91612cd6565b60006001600160a01b0384163b1561257757604051630a85bd0160e11b81526001600160a01b0385169063150b7a02906124b99033908990889088906004016136d2565b602060405180830381600087803b1580156124d357600080fd5b505af1925050508015612503575060408051601f3d908101601f191682019092526125009181019061370f565b60015b61255d573d808015612531576040519150601f19603f3d011682016040523d82523d6000602084013e612536565b606091505b5080516125555760405162461bcd60e51b81526004016109429061360b565b805181602001fd5b6001600160e01b031916630a85bd0160e11b149050611d35565b506001949350505050565b606061258d82611bf1565b60006125a460408051602081019091526000815290565b905060008151116125c457604051806020016040528060008152506125ef565b806125ce84611fe4565b6040516020016125df929190613464565b6040516020818303038152906040525b9392505050565b6126008383612974565b61260d6000848484612475565b6109e35760405162461bcd60e51b81526004016109429061360b565b60006001600160e01b031982166380ac58cd60e01b148061265a57506001600160e01b03198216635b5e139f60e01b145b8061080e57506301ffc9a760e01b6001600160e01b031983161461080e565b6001600160a01b0383166126d4576126cf81600880546000838152600960205260408120829055600182018355919091527ff3f7a9fe364faab93b216da50a3214154f22a0a2b415b23a84c8169e8b636ee30155565b6126f7565b816001600160a01b0316836001600160a01b0316146126f7576126f78382612ac2565b6001600160a01b03821661270e576109e381612b5f565b826001600160a01b0316826001600160a01b0316146109e3576109e38282612c0e565b60606000612740836002613596565b61274b9060026135b5565b67ffffffffffffffff81111561276357612763612f30565b6040519080825280601f01601f19166020018201604052801561278d576020820181803683370190505b509050600360fc1b816000815181106127a8576127a86133a0565b60200101906001600160f81b031916908160001a905350600f60fb1b816001815181106127d7576127d76133a0565b60200101906001600160f81b031916908160001a90535060006127fb846002613596565b6128069060016135b5565b90505b600181111561287e576f181899199a1a9b1b9c1cb0b131b232b360811b85600f166010811061283a5761283a6133a0565b1a60f81b828281518110612850576128506133a0565b60200101906001600160f81b031916908160001a90535060049490941c936128778161372c565b9050612809565b5083156125ef5760405162461bcd60e51b815260206004820181905260248201527f537472696e67733a20686578206c656e67746820696e73756666696369656e746044820152606401610942565b60006128d882610ef3565b90506128e6816000846123c6565b6128f1600083611c50565b6001600160a01b038116600090815260036020526040812080546001929061291a908490613566565b909155505060008281526002602052604080822080546001600160a01b0319169055518391906001600160a01b038416907fddf252ad1be2c89b69c2b068fc378daa952ba7f163c4a11628f55a4df523b3ef908390a45050565b6001600160a01b0382166129ca5760405162461bcd60e51b815260206004820181905260248201527f4552433732313a206d696e7420746f20746865207a65726f20616464726573736044820152606401610942565b6000818152600260205260409020546001600160a01b031615612a2f5760405162461bcd60e51b815260206004820152601c60248201527f4552433732313a20746f6b656e20616c7265616479206d696e746564000000006044820152606401610942565b612a3b600083836123c6565b6001600160a01b0382166000908152600360205260408120805460019290612a649084906135b5565b909155505060008181526002602052604080822080546001600160a01b0319166001600160a01b03861690811790915590518392907fddf252ad1be2c89b69c2b068fc378daa952ba7f163c4a11628f55a4df523b3ef908290a45050565b60006001612acf84610faa565b612ad99190613566565b600083815260076020526040902054909150808214612b2c576001600160a01b03841660009081526006602090815260408083208584528252808320548484528184208190558352600790915290208190555b5060009182526007602090815260408084208490556001600160a01b039094168352600681528383209183525290812055565b600854600090612b7190600190613566565b60008381526009602052604081205460088054939450909284908110612b9957612b996133a0565b906000526020600020015490508060088381548110612bba57612bba6133a0565b6000918252602080832090910192909255828152600990915260408082208490558582528120556008805480612bf257612bf2613743565b6001900381819060005260206000200160009055905550505050565b6000612c1983610faa565b6001600160a01b039093166000908152600660209081526040808320868452825280832085905593825260079052919091209190915550565b828054612c5e90613317565b90600052602060002090601f016020900481019282612c805760008555612cc6565b82601f10612c9957805160ff1916838001178555612cc6565b82800160010185558215612cc6579182015b82811115612cc6578251825591602001919060010190612cab565b50612cd2929150612d0c565b5090565b508054612ce290613317565b6000825580601f10612cf2575050565b601f016020900490600052602060002090810190610b9c91905b5b80821115612cd25760008155600101612d0d565b600060208284031215612d3357600080fd5b5035919050565b60005b83811015612d55578181015183820152602001612d3d565b838111156116c75750506000910152565b60008151808452612d7e816020860160208601612d3a565b601f01601f19169290920160200192915050565b858152846020820152836040820152821515606082015260a060808201526000612dbf60a0830184612d66565b979650505050505050565b6001600160e01b031981168114610b9c57600080fd5b600060208284031215612df257600080fd5b81356125ef81612dca565b6020815260006125ef6020830184612d66565b80356001600160a01b0381168114612e2757600080fd5b919050565b60008060408385031215612e3f57600080fd5b612e4883612e10565b946020939093013593505050565b600080600060608486031215612e6b57600080fd5b612e7484612e10565b9250612e8260208501612e10565b9150604084013590509250925092565b60008060408385031215612ea557600080fd5b82359150612eb560208401612e10565b90509250929050565b60008060208385031215612ed157600080fd5b823567ffffffffffffffff80821115612ee957600080fd5b818501915085601f830112612efd57600080fd5b813581811115612f0c57600080fd5b866020828501011115612f1e57600080fd5b60209290920196919550909350505050565b634e487b7160e01b600052604160045260246000fd5b600067ffffffffffffffff80841115612f6157612f61612f30565b604051601f8501601f19908116603f01168101908282118183101715612f8957612f89612f30565b81604052809350858152868686011115612fa257600080fd5b858560208301376000602087830101525050509392505050565b600082601f830112612fcd57600080fd5b6125ef83833560208501612f46565b600060208284031215612fee57600080fd5b813567ffffffffffffffff81111561300557600080fd5b611d3584828501612fbc565b8215158152604060208201526000611d356040830184612d66565b60006020828403121561303e57600080fd5b6125ef82612e10565b6000806040838503121561305a57600080fd5b61306383612e10565b91506020830135801515811461307857600080fd5b809150509250929050565b6000806040838503121561309657600080fd5b50508035926020909101359150565b600080600080608085870312156130bb57600080fd5b6130c485612e10565b93506130d260208601612e10565b925060408501359150606085013567ffffffffffffffff8111156130f557600080fd5b61310187828801612fbc565b91505092959194509250565b60006020808301818452808551808352604092508286019150828160051b87010184880160005b8381101561319657888303603f190185528151805184528781015188850152868101518785015260608082015115159085015260809081015160a09185018290529061318281860183612d66565b968901969450505090860190600101613134565b509098975050505050505050565b600080604083850312156131b757600080fd5b6131c083612e10565b9150602083013567ffffffffffffffff8111156131dc57600080fd5b8301601f810185136131ed57600080fd5b6131fc85823560208401612f46565b9150509250929050565b6000806040838503121561321957600080fd5b61322283612e10565b9150612eb560208401612e10565b6020808252825182820181905260009190848201906040850190845b818110156132685783518352928401929184019160010161324c565b50909695505050505050565b6020808252825182820181905260009190848201906040850190845b818110156132685783516001600160a01b031683529284019291840191600101613290565b6000602080830181845280855180835260408601915060408160051b870101925083870160005b8281101561330a57603f198886030184526132f8858351612d66565b945092850192908501906001016132dc565b5092979650505050505050565b600181811c9082168061332b57607f821691505b6020821081141561334c57634e487b7160e01b600052602260045260246000fd5b50919050565b6020808252602e908201527f4552433732313a2063616c6c6572206973206e6f7420746f6b656e206f776e6560408201526d1c881b9bdc88185c1c1c9bdd995960921b606082015260800190565b634e487b7160e01b600052603260045260246000fd5b66697066733a2f2f60c81b815260006007600084546133d481613317565b600182811680156133ec57600181146134015761330a565b60ff198416888701528288018601945061330a565b8860005260208060002060005b858110156134295781548b82018a015290840190820161340e565b50505050950190920195945050505050565b6000825161344d818460208701612d3a565b64173539b7b760d91b920191825250600501919050565b60008351613476818460208801612d3a565b83519083019061348a818360208801612d3a565b01949350505050565b634e487b7160e01b600052601160045260246000fd5b60006000198214156134bd576134bd613493565b5060010190565b85815260006020868184015285604084015284606084015260a06080840152600084546134f081613317565b8060a087015260c0600180841660008114613512576001811461352657613554565b60ff1985168984015260e089019550613554565b896000528660002060005b8581101561354c5781548b8201860152908301908801613531565b8a0184019650505b50939c9b505050505050505050505050565b60008282101561357857613578613493565b500390565b60006020828403121561358f57600080fd5b5051919050565b60008160001904831182151516156135b0576135b0613493565b500290565b600082198211156135c8576135c8613493565b500190565b634e487b7160e01b600052601260045260246000fd5b6000826135f2576135f26135cd565b500490565b600082613606576136066135cd565b500690565b60208082526032908201527f4552433732313a207472616e7366657220746f206e6f6e20455243373231526560408201527131b2b4bb32b91034b6b83632b6b2b73a32b960711b606082015260800190565b7f416363657373436f6e74726f6c3a206163636f756e7420000000000000000000815260008351613695816017850160208801612d3a565b7001034b99036b4b9b9b4b733903937b6329607d1b60179184019182015283516136c6816028840160208801612d3a565b01602801949350505050565b6001600160a01b038581168252841660208201526040810183905260806060820181905260009061370590830184612d66565b9695505050505050565b60006020828403121561372157600080fd5b81516125ef81612dca565b60008161373b5761373b613493565b506000190190565b634e487b7160e01b600052603160045260246000fdfea264697066735822122087b4b8756aca569f918992f83e459cdc7b4b4350f24d7f8dc6af83bbef62500f64736f6c63430008090033",
  "linkReferences": {},
  "deployedLinkReferences": {}
}